{
  "_format": "hh-sol-artifact-1",
  "contractName": "Genesis",
  "sourceName": "src/contracts/Genesis.sol",
  "abi": [
    {
      "inputs": [
        {
          "internalType": "uint256",
          "name": "_projectTax",
          "type": "uint256"
        }
      ],
      "stateMutability": "nonpayable",
      "type": "constructor"
    },
    {
      "anonymous": false,
      "inputs": [
        {
          "indexed": false,
          "internalType": "uint256",
          "name": "id",
          "type": "uint256"
        },
        {
          "indexed": false,
          "internalType": "string",
          "name": "actionType",
          "type": "string"
        },
        {
          "indexed": true,
          "internalType": "address",
          "name": "executor",
          "type": "address"
        },
        {
          "indexed": false,
          "internalType": "uint256",
          "name": "timestamp",
          "type": "uint256"
        }
      ],
      "name": "Action",
      "type": "event"
    },
    {
      "inputs": [
        {
          "internalType": "uint256",
          "name": "id",
          "type": "uint256"
        }
      ],
      "name": "backProject",
      "outputs": [
        {
          "internalType": "bool",
          "name": "",
          "type": "bool"
        }
      ],
      "stateMutability": "payable",
      "type": "function"
    },
    {
      "inputs": [],
      "name": "balance",
      "outputs": [
        {
          "internalType": "uint256",
          "name": "",
          "type": "uint256"
        }
      ],
      "stateMutability": "view",
      "type": "function"
    },
    {
      "inputs": [
        {
          "internalType": "uint256",
          "name": "_taxPct",
          "type": "uint256"
        }
      ],
      "name": "changeTax",
      "outputs": [],
      "stateMutability": "nonpayable",
      "type": "function"
    },
    {
      "inputs": [
        {
          "internalType": "string",
          "name": "title",
          "type": "string"
        },
        {
          "internalType": "string",
          "name": "description",
          "type": "string"
        },
        {
          "internalType": "string",
          "name": "imageURL",
          "type": "string"
        },
        {
          "internalType": "uint256",
          "name": "cost",
          "type": "uint256"
        },
        {
          "internalType": "uint256",
          "name": "expiresAt",
          "type": "uint256"
        }
      ],
      "name": "createProject",
      "outputs": [
        {
          "internalType": "bool",
          "name": "",
          "type": "bool"
        }
      ],
      "stateMutability": "nonpayable",
      "type": "function"
    },
    {
      "inputs": [
        {
          "internalType": "uint256",
          "name": "id",
          "type": "uint256"
        }
      ],
      "name": "deleteProject",
      "outputs": [
        {
          "internalType": "bool",
          "name": "",
          "type": "bool"
        }
      ],
      "stateMutability": "nonpayable",
      "type": "function"
    },
    {
      "inputs": [
        {
          "internalType": "uint256",
          "name": "id",
          "type": "uint256"
        }
      ],
      "name": "getBackers",
      "outputs": [
        {
          "components": [
            {
              "internalType": "address",
              "name": "owner",
              "type": "address"
            },
            {
              "internalType": "uint256",
              "name": "contribution",
              "type": "uint256"
            },
            {
              "internalType": "uint256",
              "name": "timestamp",
              "type": "uint256"
            },
            {
              "internalType": "bool",
              "name": "refunded",
              "type": "bool"
            },
            {
              "internalType": "bool",
              "name": "voted",
              "type": "bool"
            }
          ],
          "internalType": "struct Genesis.backerStructer[]",
          "name": "",
          "type": "tuple[]"
        }
      ],
      "stateMutability": "view",
      "type": "function"
    },
    {
      "inputs": [
        {
          "internalType": "uint256",
          "name": "id",
          "type": "uint256"
        }
      ],
      "name": "getProject",
      "outputs": [
        {
          "components": [
            {
              "internalType": "uint256",
              "name": "id",
              "type": "uint256"
            },
            {
              "internalType": "address",
              "name": "owner",
              "type": "address"
            },
            {
              "internalType": "string",
              "name": "title",
              "type": "string"
            },
            {
              "internalType": "string",
              "name": "description",
              "type": "string"
            },
            {
              "internalType": "string",
              "name": "imageURL",
              "type": "string"
            },
            {
              "internalType": "uint256",
              "name": "cost",
              "type": "uint256"
            },
            {
              "internalType": "uint256",
              "name": "raised",
              "type": "uint256"
            },
            {
              "internalType": "uint256",
              "name": "timestamp",
              "type": "uint256"
            },
            {
              "internalType": "uint256",
              "name": "expiresAt",
              "type": "uint256"
            },
            {
              "internalType": "uint256",
              "name": "backers",
              "type": "uint256"
            },
            {
              "internalType": "enum Genesis.statusEnum",
              "name": "status",
              "type": "uint8"
            }
          ],
          "internalType": "struct Genesis.projectStruct",
          "name": "",
          "type": "tuple"
        }
      ],
      "stateMutability": "view",
      "type": "function"
    },
    {
      "inputs": [],
      "name": "getProjects",
      "outputs": [
        {
          "components": [
            {
              "internalType": "uint256",
              "name": "id",
              "type": "uint256"
            },
            {
              "internalType": "address",
              "name": "owner",
              "type": "address"
            },
            {
              "internalType": "string",
              "name": "title",
              "type": "string"
            },
            {
              "internalType": "string",
              "name": "description",
              "type": "string"
            },
            {
              "internalType": "string",
              "name": "imageURL",
              "type": "string"
            },
            {
              "internalType": "uint256",
              "name": "cost",
              "type": "uint256"
            },
            {
              "internalType": "uint256",
              "name": "raised",
              "type": "uint256"
            },
            {
              "internalType": "uint256",
              "name": "timestamp",
              "type": "uint256"
            },
            {
              "internalType": "uint256",
              "name": "expiresAt",
              "type": "uint256"
            },
            {
              "internalType": "uint256",
              "name": "backers",
              "type": "uint256"
            },
            {
              "internalType": "enum Genesis.statusEnum",
              "name": "status",
              "type": "uint8"
            }
          ],
          "internalType": "struct Genesis.projectStruct[]",
          "name": "",
          "type": "tuple[]"
        }
      ],
      "stateMutability": "view",
      "type": "function"
    },
    {
      "inputs": [
        {
          "internalType": "uint256",
          "name": "projectID",
          "type": "uint256"
        },
        {
          "internalType": "uint256",
          "name": "userID",
          "type": "uint256"
        }
      ],
      "name": "getVotingStatus",
      "outputs": [
        {
          "internalType": "bool",
          "name": "",
          "type": "bool"
        }
      ],
      "stateMutability": "view",
      "type": "function"
    },
    {
      "inputs": [],
      "name": "owner",
      "outputs": [
        {
          "internalType": "address",
          "name": "",
          "type": "address"
        }
      ],
      "stateMutability": "view",
      "type": "function"
    },
    {
      "inputs": [
        {
          "internalType": "uint256",
          "name": "id",
          "type": "uint256"
        }
      ],
      "name": "payOutProject",
      "outputs": [
        {
          "internalType": "bool",
          "name": "",
          "type": "bool"
        }
      ],
      "stateMutability": "nonpayable",
      "type": "function"
    },
    {
      "inputs": [],
      "name": "projectCount",
      "outputs": [
        {
          "internalType": "uint256",
          "name": "",
          "type": "uint256"
        }
      ],
      "stateMutability": "view",
      "type": "function"
    },
    {
      "inputs": [
        {
          "internalType": "uint256",
          "name": "",
          "type": "uint256"
        }
      ],
      "name": "projectExist",
      "outputs": [
        {
          "internalType": "bool",
          "name": "",
          "type": "bool"
        }
      ],
      "stateMutability": "view",
      "type": "function"
    },
    {
      "inputs": [],
      "name": "projectTax",
      "outputs": [
        {
          "internalType": "uint256",
          "name": "",
          "type": "uint256"
        }
      ],
      "stateMutability": "view",
      "type": "function"
    },
    {
      "inputs": [
        {
          "internalType": "uint256",
          "name": "id",
          "type": "uint256"
        }
      ],
      "name": "requestRefund",
      "outputs": [
        {
          "internalType": "bool",
          "name": "",
          "type": "bool"
        }
      ],
      "stateMutability": "nonpayable",
      "type": "function"
    },
    {
      "inputs": [],
      "name": "stats",
      "outputs": [
        {
          "internalType": "uint256",
          "name": "totalProjects",
          "type": "uint256"
        },
        {
          "internalType": "uint256",
          "name": "totalBacking",
          "type": "uint256"
        },
        {
          "internalType": "uint256",
          "name": "totalDonations",
          "type": "uint256"
        }
      ],
      "stateMutability": "view",
      "type": "function"
    },
    {
      "inputs": [
        {
          "internalType": "uint256",
          "name": "id",
          "type": "uint256"
        },
        {
          "internalType": "string",
          "name": "title",
          "type": "string"
        },
        {
          "internalType": "string",
          "name": "description",
          "type": "string"
        },
        {
          "internalType": "string",
          "name": "imageURL",
          "type": "string"
        },
        {
          "internalType": "uint256",
          "name": "expiresAt",
          "type": "uint256"
        }
      ],
      "name": "updateProject",
      "outputs": [
        {
          "internalType": "bool",
          "name": "",
          "type": "bool"
        }
      ],
      "stateMutability": "nonpayable",
      "type": "function"
    },
    {
      "inputs": [
        {
          "internalType": "uint256",
          "name": "id",
          "type": "uint256"
        },
        {
          "internalType": "uint256",
          "name": "userID",
          "type": "uint256"
        }
      ],
      "name": "voteForBacker",
      "outputs": [
        {
          "internalType": "bool",
          "name": "",
          "type": "bool"
        }
      ],
      "stateMutability": "nonpayable",
      "type": "function"
    }
  ],
  "bytecode": "0x60806040523480156200001157600080fd5b5060405162002556380380620025568339810160408190526200003491620000c7565b60005b600a811015620000ab5760005b600a81101562000095576000600883600a8110620000665762000066620000e1565b600a020182600a81106200007e576200007e620000e1565b0155806200008c81620000f7565b91505062000044565b5080620000a281620000f7565b91505062000037565b50600080546001600160a01b0319163317905560015562000121565b600060208284031215620000da57600080fd5b5051919050565b634e487b7160e01b600052603260045260246000fd5b60006000198214156200011a57634e487b7160e01b600052601160045260246000fd5b5060010190565b61242580620001316000396000f3fe6080604052600436106101095760003560e01c80639f39a19411610095578063c9168b7211610064578063c9168b72146102e7578063d24cd3ec14610314578063d80528ae1461032a578063dcc6012814610364578063f0f3f2c81461038657600080fd5b80639f39a1941461027e578063a4b2409e14610291578063b531dcba146102b1578063b69ef8a8146102d157600080fd5b80637de7e896116100dc5780637de7e896146101a95780638593054b146101d05780638bd271d5146102005780638da5cb5b146102265780639a3fa8c71461025e57600080fd5b8063056c29ee1461010e57806336fbad26146101435780633e45c8af146101675780634cd0cb2814610189575b600080fd5b34801561011a57600080fd5b5061012e610129366004611f00565b6103b3565b60405190151581526020015b60405180910390f35b34801561014f57600080fd5b5061015960025481565b60405190815260200161013a565b34801561017357600080fd5b50610187610182366004611f9a565b61081c565b005b34801561019557600080fd5b5061012e6101a4366004611f9a565b610871565b3480156101b557600080fd5b5061012e6101c4366004611fb3565b50506001600881905590565b3480156101dc57600080fd5b5061012e6101eb366004611f9a565b606e6020526000908152604090205460ff1681565b34801561020c57600080fd5b5061012e61021b366004611fb3565b505060085460011490565b34801561023257600080fd5b50600054610246906001600160a01b031681565b6040516001600160a01b03909116815260200161013a565b34801561026a57600080fd5b5061012e610279366004611fd5565b6109ed565b61012e61028c366004611f9a565b610c64565b34801561029d57600080fd5b5061012e6102ac366004611f9a565b61108f565b3480156102bd57600080fd5b5061012e6102cc366004611f9a565b6111c9565b3480156102dd57600080fd5b5061015960035481565b3480156102f357600080fd5b50610307610302366004611f9a565b6112b8565b60405161013a919061206f565b34801561032057600080fd5b5061015960015481565b34801561033657600080fd5b5060045460055460065461034992919083565b6040805193845260208401929092529082015260600161013a565b34801561037057600080fd5b5061037961136a565b60405161013a9190612234565b34801561039257600080fd5b506103a66103a1366004611f9a565b611605565b60405161013a9190612296565b6000808651116104025760405162461bcd60e51b81526020600482015260156024820152745469746c652063616e6e6f7420626520656d70747960581b60448201526064015b60405180910390fd5b60008551116104535760405162461bcd60e51b815260206004820152601b60248201527f4465736372697074696f6e2063616e6e6f7420626520656d707479000000000060448201526064016103f9565b600084511161049f5760405162461bcd60e51b8152602060048201526018602482015277496d61676555524c2063616e6e6f7420626520656d70747960401b60448201526064016103f9565b600083116104e55760405162461bcd60e51b8152602060048201526013602482015272436f73742063616e6e6f74206265207a65726f60681b60448201526064016103f9565b6104ed611d51565b600254815233602080830191825260408301898152606084018990526080840188905260a084018790524260e085015261010084018690526007805460018101825560009190915284517fa66cc928b5edb82af9bd49922954155ab7b0942694bea4ce44661d9a8736c688600b90920291820190815593517fa66cc928b5edb82af9bd49922954155ab7b0942694bea4ce44661d9a8736c689820180546001600160a01b0319166001600160a01b03909216919091179055905180518594936105da937fa66cc928b5edb82af9bd49922954155ab7b0942694bea4ce44661d9a8736c68a01920190611dc4565b50606082015180516105f6916003840191602090910190611dc4565b5060808201518051610612916004840191602090910190611dc4565b5060a0820151600582015560c0820151600682015560e0820151600782015561010082015160088201556101208201516009820155610140820151600a8201805460ff1916600183600481111561066b5761066b612137565b021790555050600280546000908152606e602090815260408083208054600160ff199091168117909155338452606c835281842080548083018255908552938390208751600b909502019384558683015190840180546001600160a01b0319166001600160a01b03909216919091179055850151805186955092936106f893908501929190910190611dc4565b5060608201518051610714916003840191602090910190611dc4565b5060808201518051610730916004840191602090910190611dc4565b5060a0820151600582015560c0820151600682015560e0820151600782015561010082015160088201556101208201516009820155610140820151600a8201805460ff1916600183600481111561078957610789612137565b021790555050506001600460000160008282546107a691906122c6565b90915550506002805433916000805160206123d0833981519152919060006107cd836122de565b9091555060408051918252606060208301819052600f908301526e141493d29150d50810d49150551151608a1b6080830152429082015260a00160405180910390a25060019695505050505050565b6000546001600160a01b0316331461086c5760405162461bcd60e51b81526020600482015260136024820152724f776e6572207265736572766564206f6e6c7960681b60448201526064016103f9565b600155565b60008060078381548110610887576108876122f9565b60009182526020909120600a600b90920201015460ff1660048111156108af576108af612137565b146108f75760405162461bcd60e51b8152602060048201526018602482015277141c9bda9958dd081b9bc81b1bdb99d95c881bdc195b995960421b60448201526064016103f9565b6007828154811061090a5761090a6122f9565b60009182526020909120600b90910201600101546001600160a01b031633146109455760405162461bcd60e51b81526004016103f99061230f565b60036007838154811061095a5761095a6122f9565b60009182526020909120600a600b9092020101805460ff1916600183600481111561098757610987612137565b0217905550610995826118e5565b60408051838152606060208201819052600f908201526e141493d29150d50811115311551151608a1b60808201524281830152905133916000805160206123d0833981519152919081900360a00190a2506001919050565b600060078681548110610a0257610a026122f9565b60009182526020909120600b90910201600101546001600160a01b03163314610a3d5760405162461bcd60e51b81526004016103f99061230f565b6000855111610a865760405162461bcd60e51b81526020600482015260156024820152745469746c652063616e6e6f7420626520656d70747960581b60448201526064016103f9565b6000845111610ad75760405162461bcd60e51b815260206004820152601b60248201527f4465736372697074696f6e2063616e6e6f7420626520656d707479000000000060448201526064016103f9565b6000835111610b235760405162461bcd60e51b8152602060048201526018602482015277496d61676555524c2063616e6e6f7420626520656d70747960401b60448201526064016103f9565b8460078781548110610b3757610b376122f9565b90600052602060002090600b02016002019080519060200190610b5b929190611dc4565b508360078781548110610b7057610b706122f9565b90600052602060002090600b02016003019080519060200190610b94929190611dc4565b508260078781548110610ba957610ba96122f9565b90600052602060002090600b02016004019080519060200190610bcd929190611dc4565b508160078781548110610be257610be26122f9565b90600052602060002090600b020160080181905550336001600160a01b03166000805160206123d08339815191528742604051610c50929190918252606060208301819052600f908301526e141493d29150d50815541110551151608a1b6080830152604082015260a00190565b60405180910390a250600195945050505050565b6000803411610cb55760405162461bcd60e51b815260206004820152601f60248201527f4574686572206d7573742062652067726561746572207468616e207a65726f0060448201526064016103f9565b6000828152606e602052604090205460ff16610d075760405162461bcd60e51b8152602060048201526011602482015270141c9bda9958dd081b9bdd08199bdd5b99607a1b60448201526064016103f9565b600060078381548110610d1c57610d1c6122f9565b60009182526020909120600a600b90920201015460ff166004811115610d4457610d44612137565b14610d8c5760405162461bcd60e51b8152602060048201526018602482015277141c9bda9958dd081b9bc81b1bdb99d95c881bdc195b995960421b60448201526064016103f9565b600160046001016000828254610da291906122c6565b909155505060068054349190600090610dbc9084906122c6565b925050819055503460078381548110610dd757610dd76122f9565b90600052602060002090600b02016006016000828254610df791906122c6565b92505081905550600160078381548110610e1357610e136122f9565b90600052602060002090600b02016009016000828254610e3391906122c6565b90915550506040805160a0808201835260006060808401828152608080860184815233808852346020808a01918252428a8c018181528e8a52606d83528c8a20805460018082018355918c529a8490208d516004909c020180546001600160a01b0319166001600160a01b03909c169b909b178b559351938a019390935591516002890155945160039097018054935161ffff1990941697151561ff00191697909717610100931515939093029290921790955587518a8152928301849052600e938301939093526d141493d29150d508109050d2d15160921b908201529485015291926000805160206123d0833981519152910160405180910390a260078381548110610f4357610f436122f9565b90600052602060002090600b02016005015460078481548110610f6857610f686122f9565b90600052602060002090600b0201600601541061101457600160078481548110610f9457610f946122f9565b60009182526020909120600a600b9092020101805460ff19166001836004811115610fc157610fc1612137565b021790555060078381548110610fd957610fd96122f9565b90600052602060002090600b02016006015460036000828254610ffc91906122c6565b9091555061100b905083611a53565b50600192915050565b60078381548110611027576110276122f9565b90600052602060002090600b020160080154421061100b57600260078481548110611054576110546122f9565b60009182526020909120600a600b9092020101805460ff1916600183600481111561108157611081612137565b021790555061100b836118e5565b60006002600783815481106110a6576110a66122f9565b60009182526020909120600a600b90920201015460ff1660048111156110ce576110ce612137565b14158061111657506003600783815481106110eb576110eb6122f9565b60009182526020909120600a600b90920201015460ff16600481111561111357611113612137565b14155b6111715760405162461bcd60e51b815260206004820152602660248201527f50726f6a656374206e6f74206d61726b656420617320726576657274206f722060448201526564656c65746560d01b60648201526084016103f9565b600260078381548110611186576111866122f9565b60009182526020909120600a600b9092020101805460ff191660018360048111156111b3576111b3612137565b02179055506111c1826118e5565b506001919050565b60006001600783815481106111e0576111e06122f9565b60009182526020909120600a600b90920201015460ff16600481111561120857611208612137565b1461124c5760405162461bcd60e51b8152602060048201526014602482015273141c9bda9958dd081b9bdd081054141493d5915160621b60448201526064016103f9565b6007828154811061125f5761125f6122f9565b60009182526020909120600b90910201600101546001600160a01b031633148061129357506000546001600160a01b031633145b6112af5760405162461bcd60e51b81526004016103f99061230f565b6111c182611a53565b6060606d6000838152602001908152602001600020805480602002602001604051908101604052809291908181526020016000905b8282101561135f5760008481526020908190206040805160a0810182526004860290920180546001600160a01b03168352600180820154848601526002820154928401929092526003015460ff80821615156060850152610100909104161515608083015290835290920191016112ed565b505050509050919050565b60606007805480602002602001604051908101604052809291908181526020016000905b828210156115fc5760008481526020908190206040805161016081018252600b86029092018054835260018101546001600160a01b031693830193909352600283018054929392918401916113e29061233c565b80601f016020809104026020016040519081016040528092919081815260200182805461140e9061233c565b801561145b5780601f106114305761010080835404028352916020019161145b565b820191906000526020600020905b81548152906001019060200180831161143e57829003601f168201915b505050505081526020016003820180546114749061233c565b80601f01602080910402602001604051908101604052809291908181526020018280546114a09061233c565b80156114ed5780601f106114c2576101008083540402835291602001916114ed565b820191906000526020600020905b8154815290600101906020018083116114d057829003601f168201915b505050505081526020016004820180546115069061233c565b80601f01602080910402602001604051908101604052809291908181526020018280546115329061233c565b801561157f5780601f106115545761010080835404028352916020019161157f565b820191906000526020600020905b81548152906001019060200180831161156257829003601f168201915b505050918352505060058201546020820152600682015460408201526007820154606082015260088201546080820152600982015460a0820152600a82015460c09091019060ff1660048111156115d8576115d8612137565b60048111156115e9576115e9612137565b815250508152602001906001019061138e565b50505050905090565b61160d611d51565b6000828152606e602052604090205460ff1661165f5760405162461bcd60e51b8152602060048201526011602482015270141c9bda9958dd081b9bdd08199bdd5b99607a1b60448201526064016103f9565b60078281548110611672576116726122f9565b90600052602060002090600b020160405180610160016040529081600082015481526020016001820160009054906101000a90046001600160a01b03166001600160a01b03166001600160a01b031681526020016002820180546116d59061233c565b80601f01602080910402602001604051908101604052809291908181526020018280546117019061233c565b801561174e5780601f106117235761010080835404028352916020019161174e565b820191906000526020600020905b81548152906001019060200180831161173157829003601f168201915b505050505081526020016003820180546117679061233c565b80601f01602080910402602001604051908101604052809291908181526020018280546117939061233c565b80156117e05780601f106117b5576101008083540402835291602001916117e0565b820191906000526020600020905b8154815290600101906020018083116117c357829003601f168201915b505050505081526020016004820180546117f99061233c565b80601f01602080910402602001604051908101604052809291908181526020018280546118259061233c565b80156118725780601f1061184757610100808354040283529160200191611872565b820191906000526020600020905b81548152906001019060200180831161185557829003601f168201915b505050918352505060058201546020820152600682015460408201526007820154606082015260088201546080820152600982015460a0820152600a82015460c09091019060ff1660048111156118cb576118cb612137565b60048111156118dc576118dc612137565b90525092915050565b60005b6000828152606d6020526040902054811015611a4f576000828152606d6020526040812080548390811061191e5761191e6122f9565b60009182526020808320600490920290910154858352606d9091526040822080546001600160a01b039092169350908490811061195d5761195d6122f9565b90600052602060002090600402016001015490506001606d60008681526020019081526020016000208481548110611997576119976122f9565b906000526020600020906004020160030160006101000a81548160ff02191690831515021790555042606d600086815260200190815260200160002084815481106119e4576119e46122f9565b906000526020600020906004020160020181905550611a038282611cec565b600160046001016000828254611a199190612377565b909155505060068054829190600090611a33908490612377565b9250508190555050508080611a47906122de565b9150506118e8565b5050565b600060078281548110611a6857611a686122f9565b90600052602060002090600b02016006015490506000606460015483611a8e919061238e565b611a9891906123ad565b9050600060078481548110611aaf57611aaf6122f9565b90600052602060002090600b0201600801549050600460078581548110611ad857611ad86122f9565b60009182526020909120600a600b9092020101805460ff19166001836004811115611b0557611b05612137565b02179055506000805b6000868152606d6020526040902054811015611b88576000868152606d60205260409020805482908110611b4457611b446122f9565b906000526020600020906004020160030160019054906101000a900460ff1615611b765781611b72816122de565b9250505b80611b80816122de565b915050611b0e565b50600181118015611b97575081155b15611c8557611bde60078681548110611bb257611bb26122f9565b600091825260209091206001600b9092020101546001600160a01b0316611bd98587612377565b611cec565b600054611bf4906001600160a01b031684611cec565b60078581548110611c0757611c076122f9565b90600052602060002090600b02016006015460036000828254611c2a9190612377565b9091555050604080518681526060602082018190526010908201526f141493d29150d508141052510813d55560821b60808201524281830152905133916000805160206123d0833981519152919081900360a00190a2611ce5565b611c8e8561108f565b506040805186815260606020820181905260149082015273141493d29150d5081393d508141052510813d55560621b60808201524281830152905133916000805160206123d0833981519152919081900360a00190a25b5050505050565b6000826001600160a01b03168260405160006040518083038185875af1925050503d8060008114611d39576040519150601f19603f3d011682016040523d82523d6000602084013e611d3e565b606091505b5050905080611d4c57600080fd5b505050565b6040518061016001604052806000815260200160006001600160a01b03168152602001606081526020016060815260200160608152602001600081526020016000815260200160008152602001600081526020016000815260200160006004811115611dbf57611dbf612137565b905290565b828054611dd09061233c565b90600052602060002090601f016020900481019282611df25760008555611e38565b82601f10611e0b57805160ff1916838001178555611e38565b82800160010185558215611e38579182015b82811115611e38578251825591602001919060010190611e1d565b50611e44929150611e48565b5090565b5b80821115611e445760008155600101611e49565b634e487b7160e01b600052604160045260246000fd5b600082601f830112611e8457600080fd5b813567ffffffffffffffff80821115611e9f57611e9f611e5d565b604051601f8301601f19908116603f01168101908282118183101715611ec757611ec7611e5d565b81604052838152866020858801011115611ee057600080fd5b836020870160208301376000602085830101528094505050505092915050565b600080600080600060a08688031215611f1857600080fd5b853567ffffffffffffffff80821115611f3057600080fd5b611f3c89838a01611e73565b96506020880135915080821115611f5257600080fd5b611f5e89838a01611e73565b95506040880135915080821115611f7457600080fd5b50611f8188828901611e73565b9598949750949560608101359550608001359392505050565b600060208284031215611fac57600080fd5b5035919050565b60008060408385031215611fc657600080fd5b50508035926020909101359150565b600080600080600060a08688031215611fed57600080fd5b85359450602086013567ffffffffffffffff8082111561200c57600080fd5b61201889838a01611e73565b9550604088013591508082111561202e57600080fd5b61203a89838a01611e73565b9450606088013591508082111561205057600080fd5b5061205d88828901611e73565b95989497509295608001359392505050565b602080825282518282018190526000919060409081850190868401855b828110156120dd57815180516001600160a01b031685528681015187860152858101518686015260608082015115159086015260809081015115159085015260a0909301929085019060010161208c565b5091979650505050505050565b6000815180845260005b81811015612110576020818501810151868301820152016120f4565b81811115612122576000602083870101525b50601f01601f19169290920160200192915050565b634e487b7160e01b600052602160045260246000fd5b6005811061216b57634e487b7160e01b600052602160045260246000fd5b9052565b600061016082518452602083015161219260208601826001600160a01b03169052565b5060408301518160408601526121aa828601826120ea565b915050606083015184820360608601526121c482826120ea565b915050608083015184820360808601526121de82826120ea565b91505060a083015160a085015260c083015160c085015260e083015160e08501526101008084015181860152506101208084015181860152506101408084015161222a8287018261214d565b5090949350505050565b6000602080830181845280855180835260408601915060408160051b870101925083870160005b8281101561228957603f1988860301845261227785835161216f565b9450928501929085019060010161225b565b5092979650505050505050565b6020815260006122a9602083018461216f565b9392505050565b634e487b7160e01b600052601160045260246000fd5b600082198211156122d9576122d96122b0565b500190565b60006000198214156122f2576122f26122b0565b5060010190565b634e487b7160e01b600052603260045260246000fd5b602080825260139082015272556e617574686f72697a656420456e7469747960681b604082015260600190565b600181811c9082168061235057607f821691505b6020821081141561237157634e487b7160e01b600052602260045260246000fd5b50919050565b600082821015612389576123896122b0565b500390565b60008160001904831182151516156123a8576123a86122b0565b500290565b6000826123ca57634e487b7160e01b600052601260045260246000fd5b50049056feaee8e5d3bbb2f71a951b5632cee20f7ac487b9f8ab4f66a236f7694b13af7c6aa264697066735822122055a5ea9b14e7cb69babea04ab4a61b0ef8ee2dd55bcac67259e1ade3b607792764736f6c634300080b0033",
  "linkReferences": {},
  "deployedLinkReferences": {}
}