{
  "_format": "hh-sol-artifact-1",
  "contractName": "Genesis",
  "sourceName": "src/contracts/Genesis.sol",
  "abi": [
    {
      "inputs": [
        {
          "internalType": "uint256",
          "name": "_projectTax",
          "type": "uint256"
        }
      ],
      "stateMutability": "nonpayable",
      "type": "constructor"
    },
    {
      "anonymous": false,
      "inputs": [
        {
          "indexed": false,
          "internalType": "uint256",
          "name": "id",
          "type": "uint256"
        },
        {
          "indexed": false,
          "internalType": "string",
          "name": "actionType",
          "type": "string"
        },
        {
          "indexed": true,
          "internalType": "address",
          "name": "executor",
          "type": "address"
        },
        {
          "indexed": false,
          "internalType": "uint256",
          "name": "timestamp",
          "type": "uint256"
        }
      ],
      "name": "Action",
      "type": "event"
    },
    {
      "inputs": [
        {
          "internalType": "uint256",
          "name": "id",
          "type": "uint256"
        }
      ],
      "name": "backProject",
      "outputs": [
        {
          "internalType": "bool",
          "name": "",
          "type": "bool"
        }
      ],
      "stateMutability": "payable",
      "type": "function"
    },
    {
      "inputs": [],
      "name": "balance",
      "outputs": [
        {
          "internalType": "uint256",
          "name": "",
          "type": "uint256"
        }
      ],
      "stateMutability": "view",
      "type": "function"
    },
    {
      "inputs": [
        {
          "internalType": "uint256",
          "name": "_taxPct",
          "type": "uint256"
        }
      ],
      "name": "changeTax",
      "outputs": [],
      "stateMutability": "nonpayable",
      "type": "function"
    },
    {
      "inputs": [
        {
          "internalType": "string",
          "name": "title",
          "type": "string"
        },
        {
          "internalType": "string",
          "name": "description",
          "type": "string"
        },
        {
          "internalType": "string",
          "name": "imageURL",
          "type": "string"
        },
        {
          "internalType": "uint256",
          "name": "cost",
          "type": "uint256"
        },
        {
          "internalType": "uint256",
          "name": "expiresAt",
          "type": "uint256"
        }
      ],
      "name": "createProject",
      "outputs": [
        {
          "internalType": "bool",
          "name": "",
          "type": "bool"
        }
      ],
      "stateMutability": "nonpayable",
      "type": "function"
    },
    {
      "inputs": [
        {
          "internalType": "uint256",
          "name": "id",
          "type": "uint256"
        }
      ],
      "name": "deleteProject",
      "outputs": [
        {
          "internalType": "bool",
          "name": "",
          "type": "bool"
        }
      ],
      "stateMutability": "nonpayable",
      "type": "function"
    },
    {
      "inputs": [
        {
          "internalType": "uint256",
          "name": "id",
          "type": "uint256"
        }
      ],
      "name": "getBackers",
      "outputs": [
        {
          "components": [
            {
              "internalType": "address",
              "name": "owner",
              "type": "address"
            },
            {
              "internalType": "uint256",
              "name": "contribution",
              "type": "uint256"
            },
            {
              "internalType": "uint256",
              "name": "timestamp",
              "type": "uint256"
            },
            {
              "internalType": "bool",
              "name": "refunded",
              "type": "bool"
            },
            {
              "internalType": "bool",
              "name": "voted",
              "type": "bool"
            }
          ],
          "internalType": "struct Genesis.backerStruct[]",
          "name": "",
          "type": "tuple[]"
        }
      ],
      "stateMutability": "view",
      "type": "function"
    },
    {
      "inputs": [
        {
          "internalType": "uint256",
          "name": "id",
          "type": "uint256"
        }
      ],
      "name": "getProject",
      "outputs": [
        {
          "components": [
            {
              "internalType": "uint256",
              "name": "id",
              "type": "uint256"
            },
            {
              "internalType": "address",
              "name": "owner",
              "type": "address"
            },
            {
              "internalType": "string",
              "name": "title",
              "type": "string"
            },
            {
              "internalType": "string",
              "name": "description",
              "type": "string"
            },
            {
              "internalType": "string",
              "name": "imageURL",
              "type": "string"
            },
            {
              "internalType": "uint256",
              "name": "cost",
              "type": "uint256"
            },
            {
              "internalType": "uint256",
              "name": "raised",
              "type": "uint256"
            },
            {
              "internalType": "uint256",
              "name": "timestamp",
              "type": "uint256"
            },
            {
              "internalType": "uint256",
              "name": "expiresAt",
              "type": "uint256"
            },
            {
              "internalType": "uint256",
              "name": "backers",
              "type": "uint256"
            },
            {
              "internalType": "enum Genesis.statusEnum",
              "name": "status",
              "type": "uint8"
            }
          ],
          "internalType": "struct Genesis.projectStruct",
          "name": "",
          "type": "tuple"
        }
      ],
      "stateMutability": "view",
      "type": "function"
    },
    {
      "inputs": [],
      "name": "getProjects",
      "outputs": [
        {
          "components": [
            {
              "internalType": "uint256",
              "name": "id",
              "type": "uint256"
            },
            {
              "internalType": "address",
              "name": "owner",
              "type": "address"
            },
            {
              "internalType": "string",
              "name": "title",
              "type": "string"
            },
            {
              "internalType": "string",
              "name": "description",
              "type": "string"
            },
            {
              "internalType": "string",
              "name": "imageURL",
              "type": "string"
            },
            {
              "internalType": "uint256",
              "name": "cost",
              "type": "uint256"
            },
            {
              "internalType": "uint256",
              "name": "raised",
              "type": "uint256"
            },
            {
              "internalType": "uint256",
              "name": "timestamp",
              "type": "uint256"
            },
            {
              "internalType": "uint256",
              "name": "expiresAt",
              "type": "uint256"
            },
            {
              "internalType": "uint256",
              "name": "backers",
              "type": "uint256"
            },
            {
              "internalType": "enum Genesis.statusEnum",
              "name": "status",
              "type": "uint8"
            }
          ],
          "internalType": "struct Genesis.projectStruct[]",
          "name": "",
          "type": "tuple[]"
        }
      ],
      "stateMutability": "view",
      "type": "function"
    },
    {
      "inputs": [],
      "name": "owner",
      "outputs": [
        {
          "internalType": "address",
          "name": "",
          "type": "address"
        }
      ],
      "stateMutability": "view",
      "type": "function"
    },
    {
      "inputs": [
        {
          "internalType": "uint256",
          "name": "id",
          "type": "uint256"
        }
      ],
      "name": "payOutProject",
      "outputs": [
        {
          "internalType": "bool",
          "name": "",
          "type": "bool"
        }
      ],
      "stateMutability": "nonpayable",
      "type": "function"
    },
    {
      "inputs": [],
      "name": "projectCount",
      "outputs": [
        {
          "internalType": "uint256",
          "name": "",
          "type": "uint256"
        }
      ],
      "stateMutability": "view",
      "type": "function"
    },
    {
      "inputs": [
        {
          "internalType": "uint256",
          "name": "",
          "type": "uint256"
        }
      ],
      "name": "projectExist",
      "outputs": [
        {
          "internalType": "bool",
          "name": "",
          "type": "bool"
        }
      ],
      "stateMutability": "view",
      "type": "function"
    },
    {
      "inputs": [],
      "name": "projectTax",
      "outputs": [
        {
          "internalType": "uint256",
          "name": "",
          "type": "uint256"
        }
      ],
      "stateMutability": "view",
      "type": "function"
    },
    {
      "inputs": [
        {
          "internalType": "uint256",
          "name": "id",
          "type": "uint256"
        }
      ],
      "name": "requestRefund",
      "outputs": [
        {
          "internalType": "bool",
          "name": "",
          "type": "bool"
        }
      ],
      "stateMutability": "nonpayable",
      "type": "function"
    },
    {
      "inputs": [],
      "name": "stats",
      "outputs": [
        {
          "internalType": "uint256",
          "name": "totalProjects",
          "type": "uint256"
        },
        {
          "internalType": "uint256",
          "name": "totalBacking",
          "type": "uint256"
        },
        {
          "internalType": "uint256",
          "name": "totalDonations",
          "type": "uint256"
        }
      ],
      "stateMutability": "view",
      "type": "function"
    },
    {
      "inputs": [
        {
          "internalType": "uint256",
          "name": "id",
          "type": "uint256"
        },
        {
          "internalType": "string",
          "name": "title",
          "type": "string"
        },
        {
          "internalType": "string",
          "name": "description",
          "type": "string"
        },
        {
          "internalType": "string",
          "name": "imageURL",
          "type": "string"
        },
        {
          "internalType": "uint256",
          "name": "expiresAt",
          "type": "uint256"
        }
      ],
      "name": "updateProject",
      "outputs": [
        {
          "internalType": "bool",
          "name": "",
          "type": "bool"
        }
      ],
      "stateMutability": "nonpayable",
      "type": "function"
    },
    {
      "inputs": [
        {
          "internalType": "uint256",
          "name": "id",
          "type": "uint256"
        },
        {
          "internalType": "uint256",
          "name": "userID",
          "type": "uint256"
        }
      ],
      "name": "voteForBacker",
      "outputs": [],
      "stateMutability": "nonpayable",
      "type": "function"
    }
  ],
  "bytecode": "0x608060405234801561001057600080fd5b5060405161249a38038061249a83398101604081905261002f91610049565b600080546001600160a01b03191633179055600155610062565b60006020828403121561005b57600080fd5b5051919050565b612429806100716000396000f3fe6080604052600436106100fe5760003560e01c80639f39a19411610095578063c9168b7211610064578063c9168b72146102af578063d24cd3ec146102dc578063d80528ae146102f2578063dcc601281461032c578063f0f3f2c81461034e57600080fd5b80639f39a19414610246578063a4b2409e14610259578063b531dcba14610279578063b69ef8a81461029957600080fd5b80637de7e896116100d15780637de7e8961461019e5780638593054b146101be5780638da5cb5b146101ee5780639a3fa8c71461022657600080fd5b8063056c29ee1461010357806336fbad26146101385780633e45c8af1461015c5780634cd0cb281461017e575b600080fd5b34801561010f57600080fd5b5061012361011e366004611f04565b61037b565b60405190151581526020015b60405180910390f35b34801561014457600080fd5b5061014e60025481565b60405190815260200161012f565b34801561016857600080fd5b5061017c610177366004611f9e565b6107e4565b005b34801561018a57600080fd5b50610123610199366004611f9e565b610839565b3480156101aa57600080fd5b5061017c6101b9366004611fb7565b6109b5565b3480156101ca57600080fd5b506101236101d9366004611f9e565b600a6020526000908152604090205460ff1681565b3480156101fa57600080fd5b5060005461020e906001600160a01b031681565b6040516001600160a01b03909116815260200161012f565b34801561023257600080fd5b50610123610241366004611fd9565b610a2f565b610123610254366004611f9e565b610ca6565b34801561026557600080fd5b50610123610274366004611f9e565b6110db565b34801561028557600080fd5b50610123610294366004611f9e565b6111d2565b3480156102a557600080fd5b5061014e60035481565b3480156102bb57600080fd5b506102cf6102ca366004611f9e565b6112c1565b60405161012f9190612073565b3480156102e857600080fd5b5061014e60015481565b3480156102fe57600080fd5b5060045460055460065461031192919083565b6040805193845260208401929092529082015260600161012f565b34801561033857600080fd5b50610341611373565b60405161012f9190612238565b34801561035a57600080fd5b5061036e610369366004611f9e565b61160e565b60405161012f919061229a565b6000808651116103ca5760405162461bcd60e51b81526020600482015260156024820152745469746c652063616e6e6f7420626520656d70747960581b60448201526064015b60405180910390fd5b600085511161041b5760405162461bcd60e51b815260206004820152601b60248201527f4465736372697074696f6e2063616e6e6f7420626520656d707479000000000060448201526064016103c1565b60008451116104675760405162461bcd60e51b8152602060048201526018602482015277496d61676555524c2063616e6e6f7420626520656d70747960401b60448201526064016103c1565b600083116104ad5760405162461bcd60e51b8152602060048201526013602482015272436f73742063616e6e6f74206265207a65726f60681b60448201526064016103c1565b6104b5611d55565b600254815233602080830191825260408301898152606084018990526080840188905260a084018790524260e085015261010084018690526007805460018101825560009190915284517fa66cc928b5edb82af9bd49922954155ab7b0942694bea4ce44661d9a8736c688600b90920291820190815593517fa66cc928b5edb82af9bd49922954155ab7b0942694bea4ce44661d9a8736c689820180546001600160a01b0319166001600160a01b03909216919091179055905180518594936105a2937fa66cc928b5edb82af9bd49922954155ab7b0942694bea4ce44661d9a8736c68a01920190611dc8565b50606082015180516105be916003840191602090910190611dc8565b50608082015180516105da916004840191602090910190611dc8565b5060a0820151600582015560c0820151600682015560e0820151600782015561010082015160088201556101208201516009820155610140820151600a8201805460ff191660018360048111156106335761063361213b565b021790555050600280546000908152600a602090815260408083208054600160ff1990911681179091553384526008835281842080548083018255908552938390208751600b909502019384558683015190840180546001600160a01b0319166001600160a01b03909216919091179055850151805186955092936106c093908501929190910190611dc8565b50606082015180516106dc916003840191602090910190611dc8565b50608082015180516106f8916004840191602090910190611dc8565b5060a0820151600582015560c0820151600682015560e0820151600782015561010082015160088201556101208201516009820155610140820151600a8201805460ff191660018360048111156107515761075161213b565b0217905550505060016004600001600082825461076e91906122ca565b90915550506002805433916000805160206123d483398151915291906000610795836122e2565b9091555060408051918252606060208301819052600f908301526e141493d29150d50810d49150551151608a1b6080830152429082015260a00160405180910390a25060019695505050505050565b6000546001600160a01b031633146108345760405162461bcd60e51b81526020600482015260136024820152724f776e6572207265736572766564206f6e6c7960681b60448201526064016103c1565b600155565b6000806007838154811061084f5761084f6122fd565b60009182526020909120600a600b90920201015460ff1660048111156108775761087761213b565b146108bf5760405162461bcd60e51b8152602060048201526018602482015277141c9bda9958dd081b9bc81b1bdb99d95c881bdc195b995960421b60448201526064016103c1565b600782815481106108d2576108d26122fd565b60009182526020909120600b90910201600101546001600160a01b0316331461090d5760405162461bcd60e51b81526004016103c190612313565b600360078381548110610922576109226122fd565b60009182526020909120600a600b9092020101805460ff1916600183600481111561094f5761094f61213b565b021790555061095d826118ee565b60408051838152606060208201819052600f908201526e141493d29150d50811115311551151608a1b60808201524281830152905133916000805160206123d4833981519152919081900360a00190a2506001919050565b6000915060005b600083815260096020526040902054811015610a2a576000838152600960205260409020805460019190839081106109f6576109f66122fd565b60009182526020909120600490910201600301805460ff191691151591909117905580610a22816122e2565b9150506109bc565b505050565b600060078681548110610a4457610a446122fd565b60009182526020909120600b90910201600101546001600160a01b03163314610a7f5760405162461bcd60e51b81526004016103c190612313565b6000855111610ac85760405162461bcd60e51b81526020600482015260156024820152745469746c652063616e6e6f7420626520656d70747960581b60448201526064016103c1565b6000845111610b195760405162461bcd60e51b815260206004820152601b60248201527f4465736372697074696f6e2063616e6e6f7420626520656d707479000000000060448201526064016103c1565b6000835111610b655760405162461bcd60e51b8152602060048201526018602482015277496d61676555524c2063616e6e6f7420626520656d70747960401b60448201526064016103c1565b8460078781548110610b7957610b796122fd565b90600052602060002090600b02016002019080519060200190610b9d929190611dc8565b508360078781548110610bb257610bb26122fd565b90600052602060002090600b02016003019080519060200190610bd6929190611dc8565b508260078781548110610beb57610beb6122fd565b90600052602060002090600b02016004019080519060200190610c0f929190611dc8565b508160078781548110610c2457610c246122fd565b90600052602060002090600b020160080181905550336001600160a01b03166000805160206123d48339815191528742604051610c92929190918252606060208301819052600f908301526e141493d29150d50815541110551151608a1b6080830152604082015260a00190565b60405180910390a250600195945050505050565b6000803411610cf75760405162461bcd60e51b815260206004820152601f60248201527f4574686572206d7573742062652067726561746572207468616e207a65726f0060448201526064016103c1565b6000828152600a602052604090205460ff16610d495760405162461bcd60e51b8152602060048201526011602482015270141c9bda9958dd081b9bdd08199bdd5b99607a1b60448201526064016103c1565b600060078381548110610d5e57610d5e6122fd565b60009182526020909120600a600b90920201015460ff166004811115610d8657610d8661213b565b14610dce5760405162461bcd60e51b8152602060048201526018602482015277141c9bda9958dd081b9bc81b1bdb99d95c881bdc195b995960421b60448201526064016103c1565b600160046001016000828254610de491906122ca565b909155505060068054349190600090610dfe9084906122ca565b925050819055503460078381548110610e1957610e196122fd565b90600052602060002090600b02016006016000828254610e3991906122ca565b92505081905550600160078381548110610e5557610e556122fd565b90600052602060002090600b02016009016000828254610e7591906122ca565b90915550506000828152600960209081526040808320815160a08101835233808252348286019081524283860181815260608501898152608086018a8152875460018181018a55988c5299909a209551600490990290950180546001600160a01b03999099166001600160a01b0319909916989098178855915194870194909455516002860155905160039094018054955115156101000261ff00199515159590951661ffff1990961695909517939093179093555190916000805160206123d483398151915291610f7591868252606060208301819052600e908301526d141493d29150d508109050d2d15160921b6080830152604082015260a00190565b60405180910390a260078281548110610f9057610f906122fd565b90600052602060002090600b02016005015460078381548110610fb557610fb56122fd565b90600052602060002090600b0201600601541061106057600160078381548110610fe157610fe16122fd565b60009182526020909120600a600b9092020101805460ff1916600183600481111561100e5761100e61213b565b021790555060078281548110611026576110266122fd565b90600052602060002090600b0201600601546003600082825461104991906122ca565b90915550611058905082611a5c565b506001919050565b60078281548110611073576110736122fd565b90600052602060002090600b0201600801544210611058576002600783815481106110a0576110a06122fd565b60009182526020909120600a600b9092020101805460ff191660018360048111156110cd576110cd61213b565b0217905550611058826118ee565b60006002600783815481106110f2576110f26122fd565b60009182526020909120600a600b90920201015460ff16600481111561111a5761111a61213b565b1415806111625750600360078381548110611137576111376122fd565b60009182526020909120600a600b90920201015460ff16600481111561115f5761115f61213b565b14155b6111bd5760405162461bcd60e51b815260206004820152602660248201527f50726f6a656374206e6f74206d61726b656420617320726576657274206f722060448201526564656c65746560d01b60648201526084016103c1565b6002600783815481106110a0576110a06122fd565b60006001600783815481106111e9576111e96122fd565b60009182526020909120600a600b90920201015460ff1660048111156112115761121161213b565b146112555760405162461bcd60e51b8152602060048201526014602482015273141c9bda9958dd081b9bdd081054141493d5915160621b60448201526064016103c1565b60078281548110611268576112686122fd565b60009182526020909120600b90910201600101546001600160a01b031633148061129c57506000546001600160a01b031633145b6112b85760405162461bcd60e51b81526004016103c190612313565b61105882611a5c565b606060096000838152602001908152602001600020805480602002602001604051908101604052809291908181526020016000905b828210156113685760008481526020908190206040805160a0810182526004860290920180546001600160a01b03168352600180820154848601526002820154928401929092526003015460ff80821615156060850152610100909104161515608083015290835290920191016112f6565b505050509050919050565b60606007805480602002602001604051908101604052809291908181526020016000905b828210156116055760008481526020908190206040805161016081018252600b86029092018054835260018101546001600160a01b031693830193909352600283018054929392918401916113eb90612340565b80601f016020809104026020016040519081016040528092919081815260200182805461141790612340565b80156114645780601f1061143957610100808354040283529160200191611464565b820191906000526020600020905b81548152906001019060200180831161144757829003601f168201915b5050505050815260200160038201805461147d90612340565b80601f01602080910402602001604051908101604052809291908181526020018280546114a990612340565b80156114f65780601f106114cb576101008083540402835291602001916114f6565b820191906000526020600020905b8154815290600101906020018083116114d957829003601f168201915b5050505050815260200160048201805461150f90612340565b80601f016020809104026020016040519081016040528092919081815260200182805461153b90612340565b80156115885780601f1061155d57610100808354040283529160200191611588565b820191906000526020600020905b81548152906001019060200180831161156b57829003601f168201915b505050918352505060058201546020820152600682015460408201526007820154606082015260088201546080820152600982015460a0820152600a82015460c09091019060ff1660048111156115e1576115e161213b565b60048111156115f2576115f261213b565b8152505081526020019060010190611397565b50505050905090565b611616611d55565b6000828152600a602052604090205460ff166116685760405162461bcd60e51b8152602060048201526011602482015270141c9bda9958dd081b9bdd08199bdd5b99607a1b60448201526064016103c1565b6007828154811061167b5761167b6122fd565b90600052602060002090600b020160405180610160016040529081600082015481526020016001820160009054906101000a90046001600160a01b03166001600160a01b03166001600160a01b031681526020016002820180546116de90612340565b80601f016020809104026020016040519081016040528092919081815260200182805461170a90612340565b80156117575780601f1061172c57610100808354040283529160200191611757565b820191906000526020600020905b81548152906001019060200180831161173a57829003601f168201915b5050505050815260200160038201805461177090612340565b80601f016020809104026020016040519081016040528092919081815260200182805461179c90612340565b80156117e95780601f106117be576101008083540402835291602001916117e9565b820191906000526020600020905b8154815290600101906020018083116117cc57829003601f168201915b5050505050815260200160048201805461180290612340565b80601f016020809104026020016040519081016040528092919081815260200182805461182e90612340565b801561187b5780601f106118505761010080835404028352916020019161187b565b820191906000526020600020905b81548152906001019060200180831161185e57829003601f168201915b505050918352505060058201546020820152600682015460408201526007820154606082015260088201546080820152600982015460a0820152600a82015460c09091019060ff1660048111156118d4576118d461213b565b60048111156118e5576118e561213b565b90525092915050565b60005b600082815260096020526040902054811015611a58576000828152600960205260408120805483908110611927576119276122fd565b6000918252602080832060049092029091015485835260099091526040822080546001600160a01b0390921693509084908110611966576119666122fd565b906000526020600020906004020160010154905060016009600086815260200190815260200160002084815481106119a0576119a06122fd565b906000526020600020906004020160030160006101000a81548160ff021916908315150217905550426009600086815260200190815260200160002084815481106119ed576119ed6122fd565b906000526020600020906004020160020181905550611a0c8282611cf5565b600160046001016000828254611a22919061237b565b909155505060068054829190600090611a3c90849061237b565b9250508190555050508080611a50906122e2565b9150506118f1565b5050565b600060078281548110611a7157611a716122fd565b90600052602060002090600b02016006015490506000606460015483611a979190612392565b611aa191906123b1565b9050600060078481548110611ab857611ab86122fd565b90600052602060002090600b0201600801549050600460078581548110611ae157611ae16122fd565b60009182526020909120600a600b9092020101805460ff19166001836004811115611b0e57611b0e61213b565b02179055506000805b600086815260096020526040902054811015611b91576000868152600960205260409020805482908110611b4d57611b4d6122fd565b906000526020600020906004020160030160019054906101000a900460ff1615611b7f5781611b7b816122e2565b9250505b80611b89816122e2565b915050611b17565b50600181118015611ba0575081155b15611c8e57611be760078681548110611bbb57611bbb6122fd565b600091825260209091206001600b9092020101546001600160a01b0316611be2858761237b565b611cf5565b600054611bfd906001600160a01b031684611cf5565b60078581548110611c1057611c106122fd565b90600052602060002090600b02016006015460036000828254611c33919061237b565b9091555050604080518681526060602082018190526010908201526f141493d29150d508141052510813d55560821b60808201524281830152905133916000805160206123d4833981519152919081900360a00190a2611cee565b611c97856110db565b506040805186815260606020820181905260149082015273141493d29150d5081393d508141052510813d55560621b60808201524281830152905133916000805160206123d4833981519152919081900360a00190a25b5050505050565b6000826001600160a01b03168260405160006040518083038185875af1925050503d8060008114611d42576040519150601f19603f3d011682016040523d82523d6000602084013e611d47565b606091505b5050905080610a2a57600080fd5b6040518061016001604052806000815260200160006001600160a01b03168152602001606081526020016060815260200160608152602001600081526020016000815260200160008152602001600081526020016000815260200160006004811115611dc357611dc361213b565b905290565b828054611dd490612340565b90600052602060002090601f016020900481019282611df65760008555611e3c565b82601f10611e0f57805160ff1916838001178555611e3c565b82800160010185558215611e3c579182015b82811115611e3c578251825591602001919060010190611e21565b50611e48929150611e4c565b5090565b5b80821115611e485760008155600101611e4d565b634e487b7160e01b600052604160045260246000fd5b600082601f830112611e8857600080fd5b813567ffffffffffffffff80821115611ea357611ea3611e61565b604051601f8301601f19908116603f01168101908282118183101715611ecb57611ecb611e61565b81604052838152866020858801011115611ee457600080fd5b836020870160208301376000602085830101528094505050505092915050565b600080600080600060a08688031215611f1c57600080fd5b853567ffffffffffffffff80821115611f3457600080fd5b611f4089838a01611e77565b96506020880135915080821115611f5657600080fd5b611f6289838a01611e77565b95506040880135915080821115611f7857600080fd5b50611f8588828901611e77565b9598949750949560608101359550608001359392505050565b600060208284031215611fb057600080fd5b5035919050565b60008060408385031215611fca57600080fd5b50508035926020909101359150565b600080600080600060a08688031215611ff157600080fd5b85359450602086013567ffffffffffffffff8082111561201057600080fd5b61201c89838a01611e77565b9550604088013591508082111561203257600080fd5b61203e89838a01611e77565b9450606088013591508082111561205457600080fd5b5061206188828901611e77565b95989497509295608001359392505050565b602080825282518282018190526000919060409081850190868401855b828110156120e157815180516001600160a01b031685528681015187860152858101518686015260608082015115159086015260809081015115159085015260a09093019290850190600101612090565b5091979650505050505050565b6000815180845260005b81811015612114576020818501810151868301820152016120f8565b81811115612126576000602083870101525b50601f01601f19169290920160200192915050565b634e487b7160e01b600052602160045260246000fd5b6005811061216f57634e487b7160e01b600052602160045260246000fd5b9052565b600061016082518452602083015161219660208601826001600160a01b03169052565b5060408301518160408601526121ae828601826120ee565b915050606083015184820360608601526121c882826120ee565b915050608083015184820360808601526121e282826120ee565b91505060a083015160a085015260c083015160c085015260e083015160e08501526101008084015181860152506101208084015181860152506101408084015161222e82870182612151565b5090949350505050565b6000602080830181845280855180835260408601915060408160051b870101925083870160005b8281101561228d57603f1988860301845261227b858351612173565b9450928501929085019060010161225f565b5092979650505050505050565b6020815260006122ad6020830184612173565b9392505050565b634e487b7160e01b600052601160045260246000fd5b600082198211156122dd576122dd6122b4565b500190565b60006000198214156122f6576122f66122b4565b5060010190565b634e487b7160e01b600052603260045260246000fd5b602080825260139082015272556e617574686f72697a656420456e7469747960681b604082015260600190565b600181811c9082168061235457607f821691505b6020821081141561237557634e487b7160e01b600052602260045260246000fd5b50919050565b60008282101561238d5761238d6122b4565b500390565b60008160001904831182151516156123ac576123ac6122b4565b500290565b6000826123ce57634e487b7160e01b600052601260045260246000fd5b50049056feaee8e5d3bbb2f71a951b5632cee20f7ac487b9f8ab4f66a236f7694b13af7c6aa26469706673582212208f82f075ff8ce6102ef025c3c23452d6a11f590e1219121eadd581e6296606af64736f6c634300080b0033",
  "linkReferences": {},
  "deployedLinkReferences": {}
}