{
  "_format": "hh-sol-artifact-1",
  "contractName": "Genesis",
  "sourceName": "src/contracts/Genesis.sol",
  "abi": [
    {
      "inputs": [
        {
          "internalType": "uint256",
          "name": "_projectTax",
          "type": "uint256"
        }
      ],
      "stateMutability": "nonpayable",
      "type": "constructor"
    },
    {
      "anonymous": false,
      "inputs": [
        {
          "indexed": false,
          "internalType": "uint256",
          "name": "id",
          "type": "uint256"
        },
        {
          "indexed": false,
          "internalType": "string",
          "name": "actionType",
          "type": "string"
        },
        {
          "indexed": true,
          "internalType": "address",
          "name": "executor",
          "type": "address"
        },
        {
          "indexed": false,
          "internalType": "uint256",
          "name": "timestamp",
          "type": "uint256"
        }
      ],
      "name": "Action",
      "type": "event"
    },
    {
      "inputs": [
        {
          "internalType": "uint256",
          "name": "id",
          "type": "uint256"
        }
      ],
      "name": "backProject",
      "outputs": [
        {
          "internalType": "bool",
          "name": "",
          "type": "bool"
        }
      ],
      "stateMutability": "payable",
      "type": "function"
    },
    {
      "inputs": [],
      "name": "balance",
      "outputs": [
        {
          "internalType": "uint256",
          "name": "",
          "type": "uint256"
        }
      ],
      "stateMutability": "view",
      "type": "function"
    },
    {
      "inputs": [
        {
          "internalType": "uint256",
          "name": "_taxPct",
          "type": "uint256"
        }
      ],
      "name": "changeTax",
      "outputs": [],
      "stateMutability": "nonpayable",
      "type": "function"
    },
    {
      "inputs": [
        {
          "internalType": "string",
          "name": "title",
          "type": "string"
        },
        {
          "internalType": "string",
          "name": "description",
          "type": "string"
        },
        {
          "internalType": "string",
          "name": "imageURL",
          "type": "string"
        },
        {
          "internalType": "uint256",
          "name": "cost",
          "type": "uint256"
        },
        {
          "internalType": "uint256",
          "name": "expiresAt",
          "type": "uint256"
        }
      ],
      "name": "createProject",
      "outputs": [
        {
          "internalType": "bool",
          "name": "",
          "type": "bool"
        }
      ],
      "stateMutability": "nonpayable",
      "type": "function"
    },
    {
      "inputs": [
        {
          "internalType": "uint256",
          "name": "id",
          "type": "uint256"
        }
      ],
      "name": "deleteProject",
      "outputs": [
        {
          "internalType": "bool",
          "name": "",
          "type": "bool"
        }
      ],
      "stateMutability": "nonpayable",
      "type": "function"
    },
    {
      "inputs": [
        {
          "internalType": "uint256",
          "name": "id",
          "type": "uint256"
        }
      ],
      "name": "getBackers",
      "outputs": [
        {
          "components": [
            {
              "internalType": "address",
              "name": "owner",
              "type": "address"
            },
            {
              "internalType": "uint256",
              "name": "contribution",
              "type": "uint256"
            },
            {
              "internalType": "uint256",
              "name": "timestamp",
              "type": "uint256"
            },
            {
              "internalType": "bool",
              "name": "refunded",
              "type": "bool"
            },
            {
              "internalType": "bool",
              "name": "voted",
              "type": "bool"
            }
          ],
          "internalType": "struct Genesis.backerStructer[]",
          "name": "",
          "type": "tuple[]"
        }
      ],
      "stateMutability": "view",
      "type": "function"
    },
    {
      "inputs": [
        {
          "internalType": "uint256",
          "name": "id",
          "type": "uint256"
        }
      ],
      "name": "getProject",
      "outputs": [
        {
          "components": [
            {
              "internalType": "uint256",
              "name": "id",
              "type": "uint256"
            },
            {
              "internalType": "address",
              "name": "owner",
              "type": "address"
            },
            {
              "internalType": "string",
              "name": "title",
              "type": "string"
            },
            {
              "internalType": "string",
              "name": "description",
              "type": "string"
            },
            {
              "internalType": "string",
              "name": "imageURL",
              "type": "string"
            },
            {
              "internalType": "uint256",
              "name": "cost",
              "type": "uint256"
            },
            {
              "internalType": "uint256",
              "name": "raised",
              "type": "uint256"
            },
            {
              "internalType": "uint256",
              "name": "timestamp",
              "type": "uint256"
            },
            {
              "internalType": "uint256",
              "name": "expiresAt",
              "type": "uint256"
            },
            {
              "internalType": "uint256",
              "name": "backers",
              "type": "uint256"
            },
            {
              "internalType": "enum Genesis.statusEnum",
              "name": "status",
              "type": "uint8"
            }
          ],
          "internalType": "struct Genesis.projectStruct",
          "name": "",
          "type": "tuple"
        }
      ],
      "stateMutability": "view",
      "type": "function"
    },
    {
      "inputs": [],
      "name": "getProjects",
      "outputs": [
        {
          "components": [
            {
              "internalType": "uint256",
              "name": "id",
              "type": "uint256"
            },
            {
              "internalType": "address",
              "name": "owner",
              "type": "address"
            },
            {
              "internalType": "string",
              "name": "title",
              "type": "string"
            },
            {
              "internalType": "string",
              "name": "description",
              "type": "string"
            },
            {
              "internalType": "string",
              "name": "imageURL",
              "type": "string"
            },
            {
              "internalType": "uint256",
              "name": "cost",
              "type": "uint256"
            },
            {
              "internalType": "uint256",
              "name": "raised",
              "type": "uint256"
            },
            {
              "internalType": "uint256",
              "name": "timestamp",
              "type": "uint256"
            },
            {
              "internalType": "uint256",
              "name": "expiresAt",
              "type": "uint256"
            },
            {
              "internalType": "uint256",
              "name": "backers",
              "type": "uint256"
            },
            {
              "internalType": "enum Genesis.statusEnum",
              "name": "status",
              "type": "uint8"
            }
          ],
          "internalType": "struct Genesis.projectStruct[]",
          "name": "",
          "type": "tuple[]"
        }
      ],
      "stateMutability": "view",
      "type": "function"
    },
    {
      "inputs": [
        {
          "internalType": "uint256",
          "name": "projectID",
          "type": "uint256"
        },
        {
          "internalType": "uint256",
          "name": "userID",
          "type": "uint256"
        }
      ],
      "name": "getVotingStatus",
      "outputs": [
        {
          "internalType": "bool",
          "name": "",
          "type": "bool"
        }
      ],
      "stateMutability": "view",
      "type": "function"
    },
    {
      "inputs": [],
      "name": "owner",
      "outputs": [
        {
          "internalType": "address",
          "name": "",
          "type": "address"
        }
      ],
      "stateMutability": "view",
      "type": "function"
    },
    {
      "inputs": [
        {
          "internalType": "uint256",
          "name": "id",
          "type": "uint256"
        }
      ],
      "name": "payOutProject",
      "outputs": [
        {
          "internalType": "bool",
          "name": "",
          "type": "bool"
        }
      ],
      "stateMutability": "nonpayable",
      "type": "function"
    },
    {
      "inputs": [],
      "name": "projectCount",
      "outputs": [
        {
          "internalType": "uint256",
          "name": "",
          "type": "uint256"
        }
      ],
      "stateMutability": "view",
      "type": "function"
    },
    {
      "inputs": [
        {
          "internalType": "uint256",
          "name": "",
          "type": "uint256"
        }
      ],
      "name": "projectExist",
      "outputs": [
        {
          "internalType": "bool",
          "name": "",
          "type": "bool"
        }
      ],
      "stateMutability": "view",
      "type": "function"
    },
    {
      "inputs": [],
      "name": "projectTax",
      "outputs": [
        {
          "internalType": "uint256",
          "name": "",
          "type": "uint256"
        }
      ],
      "stateMutability": "view",
      "type": "function"
    },
    {
      "inputs": [
        {
          "internalType": "uint256",
          "name": "id",
          "type": "uint256"
        }
      ],
      "name": "requestRefund",
      "outputs": [
        {
          "internalType": "bool",
          "name": "",
          "type": "bool"
        }
      ],
      "stateMutability": "nonpayable",
      "type": "function"
    },
    {
      "inputs": [],
      "name": "stats",
      "outputs": [
        {
          "internalType": "uint256",
          "name": "totalProjects",
          "type": "uint256"
        },
        {
          "internalType": "uint256",
          "name": "totalBacking",
          "type": "uint256"
        },
        {
          "internalType": "uint256",
          "name": "totalDonations",
          "type": "uint256"
        }
      ],
      "stateMutability": "view",
      "type": "function"
    },
    {
      "inputs": [
        {
          "internalType": "uint256",
          "name": "id",
          "type": "uint256"
        },
        {
          "internalType": "string",
          "name": "title",
          "type": "string"
        },
        {
          "internalType": "string",
          "name": "description",
          "type": "string"
        },
        {
          "internalType": "string",
          "name": "imageURL",
          "type": "string"
        },
        {
          "internalType": "uint256",
          "name": "expiresAt",
          "type": "uint256"
        }
      ],
      "name": "updateProject",
      "outputs": [
        {
          "internalType": "bool",
          "name": "",
          "type": "bool"
        }
      ],
      "stateMutability": "nonpayable",
      "type": "function"
    },
    {
      "inputs": [
        {
          "internalType": "uint256",
          "name": "id",
          "type": "uint256"
        },
        {
          "internalType": "uint256",
          "name": "userID",
          "type": "uint256"
        }
      ],
      "name": "voteForBacker",
      "outputs": [
        {
          "internalType": "bool",
          "name": "",
          "type": "bool"
        }
      ],
      "stateMutability": "nonpayable",
      "type": "function"
    }
  ],
  "bytecode": "0x60806040523480156200001157600080fd5b50604051620025d6380380620025d68339810160408190526200003491620000c7565b60005b600a811015620000ab5760005b600a81101562000095576000600883600a8110620000665762000066620000e1565b600a020182600a81106200007e576200007e620000e1565b0155806200008c81620000f7565b91505062000044565b5080620000a281620000f7565b91505062000037565b50600080546001600160a01b0319163317905560015562000121565b600060208284031215620000da57600080fd5b5051919050565b634e487b7160e01b600052603260045260246000fd5b60006000198214156200011a57634e487b7160e01b600052601160045260246000fd5b5060010190565b6124a580620001316000396000f3fe6080604052600436106101095760003560e01c80639f39a19411610095578063c9168b7211610064578063c9168b72146102e0578063d24cd3ec1461030d578063d80528ae14610323578063dcc601281461035d578063f0f3f2c81461037f57600080fd5b80639f39a19414610277578063a4b2409e1461028a578063b531dcba146102aa578063b69ef8a8146102ca57600080fd5b80637de7e896116100dc5780637de7e896146101a95780638593054b146101c95780638bd271d5146101f95780638da5cb5b1461021f5780639a3fa8c71461025757600080fd5b8063056c29ee1461010e57806336fbad26146101435780633e45c8af146101675780634cd0cb2814610189575b600080fd5b34801561011a57600080fd5b5061012e610129366004611f80565b6103ac565b60405190151581526020015b60405180910390f35b34801561014f57600080fd5b5061015960025481565b60405190815260200161013a565b34801561017357600080fd5b5061018761018236600461201a565b610815565b005b34801561019557600080fd5b5061012e6101a436600461201a565b61086a565b3480156101b557600080fd5b5061012e6101c4366004612033565b6109e6565b3480156101d557600080fd5b5061012e6101e436600461201a565b606e6020526000908152604090205460ff1681565b34801561020557600080fd5b5061012e610214366004612033565b505060085460011490565b34801561022b57600080fd5b5060005461023f906001600160a01b031681565b6040516001600160a01b03909116815260200161013a565b34801561026357600080fd5b5061012e610272366004612055565b610a6d565b61012e61028536600461201a565b610ce4565b34801561029657600080fd5b5061012e6102a536600461201a565b61110f565b3480156102b657600080fd5b5061012e6102c536600461201a565b611249565b3480156102d657600080fd5b5061015960035481565b3480156102ec57600080fd5b506103006102fb36600461201a565b611338565b60405161013a91906120ef565b34801561031957600080fd5b5061015960015481565b34801561032f57600080fd5b5060045460055460065461034292919083565b6040805193845260208401929092529082015260600161013a565b34801561036957600080fd5b506103726113ea565b60405161013a91906122b4565b34801561038b57600080fd5b5061039f61039a36600461201a565b611685565b60405161013a9190612316565b6000808651116103fb5760405162461bcd60e51b81526020600482015260156024820152745469746c652063616e6e6f7420626520656d70747960581b60448201526064015b60405180910390fd5b600085511161044c5760405162461bcd60e51b815260206004820152601b60248201527f4465736372697074696f6e2063616e6e6f7420626520656d707479000000000060448201526064016103f2565b60008451116104985760405162461bcd60e51b8152602060048201526018602482015277496d61676555524c2063616e6e6f7420626520656d70747960401b60448201526064016103f2565b600083116104de5760405162461bcd60e51b8152602060048201526013602482015272436f73742063616e6e6f74206265207a65726f60681b60448201526064016103f2565b6104e6611dd1565b600254815233602080830191825260408301898152606084018990526080840188905260a084018790524260e085015261010084018690526007805460018101825560009190915284517fa66cc928b5edb82af9bd49922954155ab7b0942694bea4ce44661d9a8736c688600b90920291820190815593517fa66cc928b5edb82af9bd49922954155ab7b0942694bea4ce44661d9a8736c689820180546001600160a01b0319166001600160a01b03909216919091179055905180518594936105d3937fa66cc928b5edb82af9bd49922954155ab7b0942694bea4ce44661d9a8736c68a01920190611e44565b50606082015180516105ef916003840191602090910190611e44565b506080820151805161060b916004840191602090910190611e44565b5060a0820151600582015560c0820151600682015560e0820151600782015561010082015160088201556101208201516009820155610140820151600a8201805460ff19166001836004811115610664576106646121b7565b021790555050600280546000908152606e602090815260408083208054600160ff199091168117909155338452606c835281842080548083018255908552938390208751600b909502019384558683015190840180546001600160a01b0319166001600160a01b03909216919091179055850151805186955092936106f193908501929190910190611e44565b506060820151805161070d916003840191602090910190611e44565b5060808201518051610729916004840191602090910190611e44565b5060a0820151600582015560c0820151600682015560e0820151600782015561010082015160088201556101208201516009820155610140820151600a8201805460ff19166001836004811115610782576107826121b7565b0217905550505060016004600001600082825461079f9190612346565b9091555050600280543391600080516020612450833981519152919060006107c68361235e565b9091555060408051918252606060208301819052600f908301526e141493d29150d50810d49150551151608a1b6080830152429082015260a00160405180910390a25060019695505050505050565b6000546001600160a01b031633146108655760405162461bcd60e51b81526020600482015260136024820152724f776e6572207265736572766564206f6e6c7960681b60448201526064016103f2565b600155565b6000806007838154811061088057610880612379565b60009182526020909120600a600b90920201015460ff1660048111156108a8576108a86121b7565b146108f05760405162461bcd60e51b8152602060048201526018602482015277141c9bda9958dd081b9bc81b1bdb99d95c881bdc195b995960421b60448201526064016103f2565b6007828154811061090357610903612379565b60009182526020909120600b90910201600101546001600160a01b0316331461093e5760405162461bcd60e51b81526004016103f29061238f565b60036007838154811061095357610953612379565b60009182526020909120600a600b9092020101805460ff19166001836004811115610980576109806121b7565b021790555061098e82611965565b60408051838152606060208201819052600f908201526e141493d29150d50811115311551151608a1b6080820152428183015290513391600080516020612450833981519152919081900360a00190a2506001919050565b600080925060005b6000848152606d6020526040902054811015610a63576000848152606d6020526040902080546001919083908110610a2857610a28612379565b906000526020600020906004020160030160016101000a81548160ff0219169083151502179055508080610a5b9061235e565b9150506109ee565b5060019392505050565b600060078681548110610a8257610a82612379565b60009182526020909120600b90910201600101546001600160a01b03163314610abd5760405162461bcd60e51b81526004016103f29061238f565b6000855111610b065760405162461bcd60e51b81526020600482015260156024820152745469746c652063616e6e6f7420626520656d70747960581b60448201526064016103f2565b6000845111610b575760405162461bcd60e51b815260206004820152601b60248201527f4465736372697074696f6e2063616e6e6f7420626520656d707479000000000060448201526064016103f2565b6000835111610ba35760405162461bcd60e51b8152602060048201526018602482015277496d61676555524c2063616e6e6f7420626520656d70747960401b60448201526064016103f2565b8460078781548110610bb757610bb7612379565b90600052602060002090600b02016002019080519060200190610bdb929190611e44565b508360078781548110610bf057610bf0612379565b90600052602060002090600b02016003019080519060200190610c14929190611e44565b508260078781548110610c2957610c29612379565b90600052602060002090600b02016004019080519060200190610c4d929190611e44565b508160078781548110610c6257610c62612379565b90600052602060002090600b020160080181905550336001600160a01b03166000805160206124508339815191528742604051610cd0929190918252606060208301819052600f908301526e141493d29150d50815541110551151608a1b6080830152604082015260a00190565b60405180910390a250600195945050505050565b6000803411610d355760405162461bcd60e51b815260206004820152601f60248201527f4574686572206d7573742062652067726561746572207468616e207a65726f0060448201526064016103f2565b6000828152606e602052604090205460ff16610d875760405162461bcd60e51b8152602060048201526011602482015270141c9bda9958dd081b9bdd08199bdd5b99607a1b60448201526064016103f2565b600060078381548110610d9c57610d9c612379565b60009182526020909120600a600b90920201015460ff166004811115610dc457610dc46121b7565b14610e0c5760405162461bcd60e51b8152602060048201526018602482015277141c9bda9958dd081b9bc81b1bdb99d95c881bdc195b995960421b60448201526064016103f2565b600160046001016000828254610e229190612346565b909155505060068054349190600090610e3c908490612346565b925050819055503460078381548110610e5757610e57612379565b90600052602060002090600b02016006016000828254610e779190612346565b92505081905550600160078381548110610e9357610e93612379565b90600052602060002090600b02016009016000828254610eb39190612346565b90915550506040805160a0808201835260006060808401828152608080860184815233808852346020808a01918252428a8c018181528e8a52606d83528c8a20805460018082018355918c529a8490208d516004909c020180546001600160a01b0319166001600160a01b03909c169b909b178b559351938a019390935591516002890155945160039097018054935161ffff1990941697151561ff00191697909717610100931515939093029290921790955587518a8152928301849052600e938301939093526d141493d29150d508109050d2d15160921b90820152948501529192600080516020612450833981519152910160405180910390a260078381548110610fc357610fc3612379565b90600052602060002090600b02016005015460078481548110610fe857610fe8612379565b90600052602060002090600b020160060154106110945760016007848154811061101457611014612379565b60009182526020909120600a600b9092020101805460ff19166001836004811115611041576110416121b7565b02179055506007838154811061105957611059612379565b90600052602060002090600b0201600601546003600082825461107c9190612346565b9091555061108b905083611ad3565b50600192915050565b600783815481106110a7576110a7612379565b90600052602060002090600b020160080154421061108b576002600784815481106110d4576110d4612379565b60009182526020909120600a600b9092020101805460ff19166001836004811115611101576111016121b7565b021790555061108b83611965565b600060026007838154811061112657611126612379565b60009182526020909120600a600b90920201015460ff16600481111561114e5761114e6121b7565b141580611196575060036007838154811061116b5761116b612379565b60009182526020909120600a600b90920201015460ff166004811115611193576111936121b7565b14155b6111f15760405162461bcd60e51b815260206004820152602660248201527f50726f6a656374206e6f74206d61726b656420617320726576657274206f722060448201526564656c65746560d01b60648201526084016103f2565b60026007838154811061120657611206612379565b60009182526020909120600a600b9092020101805460ff19166001836004811115611233576112336121b7565b021790555061124182611965565b506001919050565b600060016007838154811061126057611260612379565b60009182526020909120600a600b90920201015460ff166004811115611288576112886121b7565b146112cc5760405162461bcd60e51b8152602060048201526014602482015273141c9bda9958dd081b9bdd081054141493d5915160621b60448201526064016103f2565b600782815481106112df576112df612379565b60009182526020909120600b90910201600101546001600160a01b031633148061131357506000546001600160a01b031633145b61132f5760405162461bcd60e51b81526004016103f29061238f565b61124182611ad3565b6060606d6000838152602001908152602001600020805480602002602001604051908101604052809291908181526020016000905b828210156113df5760008481526020908190206040805160a0810182526004860290920180546001600160a01b03168352600180820154848601526002820154928401929092526003015460ff808216151560608501526101009091041615156080830152908352909201910161136d565b505050509050919050565b60606007805480602002602001604051908101604052809291908181526020016000905b8282101561167c5760008481526020908190206040805161016081018252600b86029092018054835260018101546001600160a01b03169383019390935260028301805492939291840191611462906123bc565b80601f016020809104026020016040519081016040528092919081815260200182805461148e906123bc565b80156114db5780601f106114b0576101008083540402835291602001916114db565b820191906000526020600020905b8154815290600101906020018083116114be57829003601f168201915b505050505081526020016003820180546114f4906123bc565b80601f0160208091040260200160405190810160405280929190818152602001828054611520906123bc565b801561156d5780601f106115425761010080835404028352916020019161156d565b820191906000526020600020905b81548152906001019060200180831161155057829003601f168201915b50505050508152602001600482018054611586906123bc565b80601f01602080910402602001604051908101604052809291908181526020018280546115b2906123bc565b80156115ff5780601f106115d4576101008083540402835291602001916115ff565b820191906000526020600020905b8154815290600101906020018083116115e257829003601f168201915b505050918352505060058201546020820152600682015460408201526007820154606082015260088201546080820152600982015460a0820152600a82015460c09091019060ff166004811115611658576116586121b7565b6004811115611669576116696121b7565b815250508152602001906001019061140e565b50505050905090565b61168d611dd1565b6000828152606e602052604090205460ff166116df5760405162461bcd60e51b8152602060048201526011602482015270141c9bda9958dd081b9bdd08199bdd5b99607a1b60448201526064016103f2565b600782815481106116f2576116f2612379565b90600052602060002090600b020160405180610160016040529081600082015481526020016001820160009054906101000a90046001600160a01b03166001600160a01b03166001600160a01b03168152602001600282018054611755906123bc565b80601f0160208091040260200160405190810160405280929190818152602001828054611781906123bc565b80156117ce5780601f106117a3576101008083540402835291602001916117ce565b820191906000526020600020905b8154815290600101906020018083116117b157829003601f168201915b505050505081526020016003820180546117e7906123bc565b80601f0160208091040260200160405190810160405280929190818152602001828054611813906123bc565b80156118605780601f1061183557610100808354040283529160200191611860565b820191906000526020600020905b81548152906001019060200180831161184357829003601f168201915b50505050508152602001600482018054611879906123bc565b80601f01602080910402602001604051908101604052809291908181526020018280546118a5906123bc565b80156118f25780601f106118c7576101008083540402835291602001916118f2565b820191906000526020600020905b8154815290600101906020018083116118d557829003601f168201915b505050918352505060058201546020820152600682015460408201526007820154606082015260088201546080820152600982015460a0820152600a82015460c09091019060ff16600481111561194b5761194b6121b7565b600481111561195c5761195c6121b7565b90525092915050565b60005b6000828152606d6020526040902054811015611acf576000828152606d6020526040812080548390811061199e5761199e612379565b60009182526020808320600490920290910154858352606d9091526040822080546001600160a01b03909216935090849081106119dd576119dd612379565b90600052602060002090600402016001015490506001606d60008681526020019081526020016000208481548110611a1757611a17612379565b906000526020600020906004020160030160006101000a81548160ff02191690831515021790555042606d60008681526020019081526020016000208481548110611a6457611a64612379565b906000526020600020906004020160020181905550611a838282611d6c565b600160046001016000828254611a9991906123f7565b909155505060068054829190600090611ab39084906123f7565b9250508190555050508080611ac79061235e565b915050611968565b5050565b600060078281548110611ae857611ae8612379565b90600052602060002090600b02016006015490506000606460015483611b0e919061240e565b611b18919061242d565b9050600060078481548110611b2f57611b2f612379565b90600052602060002090600b0201600801549050600460078581548110611b5857611b58612379565b60009182526020909120600a600b9092020101805460ff19166001836004811115611b8557611b856121b7565b02179055506000805b6000868152606d6020526040902054811015611c08576000868152606d60205260409020805482908110611bc457611bc4612379565b906000526020600020906004020160030160019054906101000a900460ff1615611bf65781611bf28161235e565b9250505b80611c008161235e565b915050611b8e565b50600181118015611c17575081155b15611d0557611c5e60078681548110611c3257611c32612379565b600091825260209091206001600b9092020101546001600160a01b0316611c5985876123f7565b611d6c565b600054611c74906001600160a01b031684611d6c565b60078581548110611c8757611c87612379565b90600052602060002090600b02016006015460036000828254611caa91906123f7565b9091555050604080518681526060602082018190526010908201526f141493d29150d508141052510813d55560821b6080820152428183015290513391600080516020612450833981519152919081900360a00190a2611d65565b611d0e8561110f565b506040805186815260606020820181905260149082015273141493d29150d5081393d508141052510813d55560621b6080820152428183015290513391600080516020612450833981519152919081900360a00190a25b5050505050565b6000826001600160a01b03168260405160006040518083038185875af1925050503d8060008114611db9576040519150601f19603f3d011682016040523d82523d6000602084013e611dbe565b606091505b5050905080611dcc57600080fd5b505050565b6040518061016001604052806000815260200160006001600160a01b03168152602001606081526020016060815260200160608152602001600081526020016000815260200160008152602001600081526020016000815260200160006004811115611e3f57611e3f6121b7565b905290565b828054611e50906123bc565b90600052602060002090601f016020900481019282611e725760008555611eb8565b82601f10611e8b57805160ff1916838001178555611eb8565b82800160010185558215611eb8579182015b82811115611eb8578251825591602001919060010190611e9d565b50611ec4929150611ec8565b5090565b5b80821115611ec45760008155600101611ec9565b634e487b7160e01b600052604160045260246000fd5b600082601f830112611f0457600080fd5b813567ffffffffffffffff80821115611f1f57611f1f611edd565b604051601f8301601f19908116603f01168101908282118183101715611f4757611f47611edd565b81604052838152866020858801011115611f6057600080fd5b836020870160208301376000602085830101528094505050505092915050565b600080600080600060a08688031215611f9857600080fd5b853567ffffffffffffffff80821115611fb057600080fd5b611fbc89838a01611ef3565b96506020880135915080821115611fd257600080fd5b611fde89838a01611ef3565b95506040880135915080821115611ff457600080fd5b5061200188828901611ef3565b9598949750949560608101359550608001359392505050565b60006020828403121561202c57600080fd5b5035919050565b6000806040838503121561204657600080fd5b50508035926020909101359150565b600080600080600060a0868803121561206d57600080fd5b85359450602086013567ffffffffffffffff8082111561208c57600080fd5b61209889838a01611ef3565b955060408801359150808211156120ae57600080fd5b6120ba89838a01611ef3565b945060608801359150808211156120d057600080fd5b506120dd88828901611ef3565b95989497509295608001359392505050565b602080825282518282018190526000919060409081850190868401855b8281101561215d57815180516001600160a01b031685528681015187860152858101518686015260608082015115159086015260809081015115159085015260a0909301929085019060010161210c565b5091979650505050505050565b6000815180845260005b8181101561219057602081850181015186830182015201612174565b818111156121a2576000602083870101525b50601f01601f19169290920160200192915050565b634e487b7160e01b600052602160045260246000fd5b600581106121eb57634e487b7160e01b600052602160045260246000fd5b9052565b600061016082518452602083015161221260208601826001600160a01b03169052565b50604083015181604086015261222a8286018261216a565b91505060608301518482036060860152612244828261216a565b9150506080830151848203608086015261225e828261216a565b91505060a083015160a085015260c083015160c085015260e083015160e0850152610100808401518186015250610120808401518186015250610140808401516122aa828701826121cd565b5090949350505050565b6000602080830181845280855180835260408601915060408160051b870101925083870160005b8281101561230957603f198886030184526122f78583516121ef565b945092850192908501906001016122db565b5092979650505050505050565b60208152600061232960208301846121ef565b9392505050565b634e487b7160e01b600052601160045260246000fd5b6000821982111561235957612359612330565b500190565b600060001982141561237257612372612330565b5060010190565b634e487b7160e01b600052603260045260246000fd5b602080825260139082015272556e617574686f72697a656420456e7469747960681b604082015260600190565b600181811c908216806123d057607f821691505b602082108114156123f157634e487b7160e01b600052602260045260246000fd5b50919050565b60008282101561240957612409612330565b500390565b600081600019048311821515161561242857612428612330565b500290565b60008261244a57634e487b7160e01b600052601260045260246000fd5b50049056feaee8e5d3bbb2f71a951b5632cee20f7ac487b9f8ab4f66a236f7694b13af7c6aa26469706673582212202207b24712ecaa58fb91445a82300c33a476b982736e1f4f1a741d1c16b9b82f64736f6c634300080b0033",
  "linkReferences": {},
  "deployedLinkReferences": {}
}