{
  "_format": "hh-sol-artifact-1",
  "contractName": "Genesis",
  "sourceName": "src/contracts/Genesis.sol",
  "abi": [
    {
      "inputs": [
        {
          "internalType": "uint256",
          "name": "_projectTax",
          "type": "uint256"
        }
      ],
      "stateMutability": "nonpayable",
      "type": "constructor"
    },
    {
      "anonymous": false,
      "inputs": [
        {
          "indexed": false,
          "internalType": "uint256",
          "name": "id",
          "type": "uint256"
        },
        {
          "indexed": false,
          "internalType": "string",
          "name": "actionType",
          "type": "string"
        },
        {
          "indexed": true,
          "internalType": "address",
          "name": "executor",
          "type": "address"
        },
        {
          "indexed": false,
          "internalType": "uint256",
          "name": "timestamp",
          "type": "uint256"
        }
      ],
      "name": "Action",
      "type": "event"
    },
    {
      "inputs": [
        {
          "internalType": "uint256",
          "name": "id",
          "type": "uint256"
        }
      ],
      "name": "backProject",
      "outputs": [
        {
          "internalType": "bool",
          "name": "",
          "type": "bool"
        }
      ],
      "stateMutability": "payable",
      "type": "function"
    },
    {
      "inputs": [],
      "name": "balance",
      "outputs": [
        {
          "internalType": "uint256",
          "name": "",
          "type": "uint256"
        }
      ],
      "stateMutability": "view",
      "type": "function"
    },
    {
      "inputs": [
        {
          "internalType": "uint256",
          "name": "_taxPct",
          "type": "uint256"
        }
      ],
      "name": "changeTax",
      "outputs": [],
      "stateMutability": "nonpayable",
      "type": "function"
    },
    {
      "inputs": [
        {
          "internalType": "string",
          "name": "title",
          "type": "string"
        },
        {
          "internalType": "string",
          "name": "description",
          "type": "string"
        },
        {
          "internalType": "string",
          "name": "imageURL",
          "type": "string"
        },
        {
          "internalType": "uint256",
          "name": "cost",
          "type": "uint256"
        },
        {
          "internalType": "uint256",
          "name": "expiresAt",
          "type": "uint256"
        }
      ],
      "name": "createProject",
      "outputs": [
        {
          "internalType": "bool",
          "name": "",
          "type": "bool"
        }
      ],
      "stateMutability": "nonpayable",
      "type": "function"
    },
    {
      "inputs": [
        {
          "internalType": "uint256",
          "name": "id",
          "type": "uint256"
        }
      ],
      "name": "deleteProject",
      "outputs": [
        {
          "internalType": "bool",
          "name": "",
          "type": "bool"
        }
      ],
      "stateMutability": "nonpayable",
      "type": "function"
    },
    {
      "inputs": [
        {
          "internalType": "uint256",
          "name": "id",
          "type": "uint256"
        }
      ],
      "name": "getBackers",
      "outputs": [
        {
          "components": [
            {
              "internalType": "address",
              "name": "owner",
              "type": "address"
            },
            {
              "internalType": "uint256",
              "name": "contribution",
              "type": "uint256"
            },
            {
              "internalType": "uint256",
              "name": "timestamp",
              "type": "uint256"
            },
            {
              "internalType": "bool",
              "name": "voted",
              "type": "bool"
            }
          ],
          "internalType": "struct Genesis.backerStruct[]",
          "name": "",
          "type": "tuple[]"
        }
      ],
      "stateMutability": "view",
      "type": "function"
    },
    {
      "inputs": [
        {
          "internalType": "uint256",
          "name": "id",
          "type": "uint256"
        }
      ],
      "name": "getProject",
      "outputs": [
        {
          "components": [
            {
              "internalType": "uint256",
              "name": "id",
              "type": "uint256"
            },
            {
              "internalType": "address",
              "name": "owner",
              "type": "address"
            },
            {
              "internalType": "string",
              "name": "title",
              "type": "string"
            },
            {
              "internalType": "string",
              "name": "description",
              "type": "string"
            },
            {
              "internalType": "string",
              "name": "imageURL",
              "type": "string"
            },
            {
              "internalType": "uint256",
              "name": "cost",
              "type": "uint256"
            },
            {
              "internalType": "uint256",
              "name": "raised",
              "type": "uint256"
            },
            {
              "internalType": "uint256",
              "name": "timestamp",
              "type": "uint256"
            },
            {
              "internalType": "uint256",
              "name": "expiresAt",
              "type": "uint256"
            },
            {
              "internalType": "uint256",
              "name": "backers",
              "type": "uint256"
            },
            {
              "internalType": "enum Genesis.statusEnum",
              "name": "status",
              "type": "uint8"
            }
          ],
          "internalType": "struct Genesis.projectStruct",
          "name": "",
          "type": "tuple"
        }
      ],
      "stateMutability": "view",
      "type": "function"
    },
    {
      "inputs": [],
      "name": "getProjects",
      "outputs": [
        {
          "components": [
            {
              "internalType": "uint256",
              "name": "id",
              "type": "uint256"
            },
            {
              "internalType": "address",
              "name": "owner",
              "type": "address"
            },
            {
              "internalType": "string",
              "name": "title",
              "type": "string"
            },
            {
              "internalType": "string",
              "name": "description",
              "type": "string"
            },
            {
              "internalType": "string",
              "name": "imageURL",
              "type": "string"
            },
            {
              "internalType": "uint256",
              "name": "cost",
              "type": "uint256"
            },
            {
              "internalType": "uint256",
              "name": "raised",
              "type": "uint256"
            },
            {
              "internalType": "uint256",
              "name": "timestamp",
              "type": "uint256"
            },
            {
              "internalType": "uint256",
              "name": "expiresAt",
              "type": "uint256"
            },
            {
              "internalType": "uint256",
              "name": "backers",
              "type": "uint256"
            },
            {
              "internalType": "enum Genesis.statusEnum",
              "name": "status",
              "type": "uint8"
            }
          ],
          "internalType": "struct Genesis.projectStruct[]",
          "name": "",
          "type": "tuple[]"
        }
      ],
      "stateMutability": "view",
      "type": "function"
    },
    {
      "inputs": [],
      "name": "owner",
      "outputs": [
        {
          "internalType": "address",
          "name": "",
          "type": "address"
        }
      ],
      "stateMutability": "view",
      "type": "function"
    },
    {
      "inputs": [
        {
          "internalType": "uint256",
          "name": "id",
          "type": "uint256"
        }
      ],
      "name": "payOutProject",
      "outputs": [
        {
          "internalType": "bool",
          "name": "",
          "type": "bool"
        }
      ],
      "stateMutability": "nonpayable",
      "type": "function"
    },
    {
      "inputs": [],
      "name": "projectCount",
      "outputs": [
        {
          "internalType": "uint256",
          "name": "",
          "type": "uint256"
        }
      ],
      "stateMutability": "view",
      "type": "function"
    },
    {
      "inputs": [
        {
          "internalType": "uint256",
          "name": "",
          "type": "uint256"
        }
      ],
      "name": "projectExist",
      "outputs": [
        {
          "internalType": "bool",
          "name": "",
          "type": "bool"
        }
      ],
      "stateMutability": "view",
      "type": "function"
    },
    {
      "inputs": [],
      "name": "projectTax",
      "outputs": [
        {
          "internalType": "uint256",
          "name": "",
          "type": "uint256"
        }
      ],
      "stateMutability": "view",
      "type": "function"
    },
    {
      "inputs": [
        {
          "internalType": "uint256",
          "name": "id",
          "type": "uint256"
        }
      ],
      "name": "requestRefund",
      "outputs": [
        {
          "internalType": "bool",
          "name": "",
          "type": "bool"
        }
      ],
      "stateMutability": "nonpayable",
      "type": "function"
    },
    {
      "inputs": [],
      "name": "stats",
      "outputs": [
        {
          "internalType": "uint256",
          "name": "totalProjects",
          "type": "uint256"
        },
        {
          "internalType": "uint256",
          "name": "totalBacking",
          "type": "uint256"
        },
        {
          "internalType": "uint256",
          "name": "totalDonations",
          "type": "uint256"
        }
      ],
      "stateMutability": "view",
      "type": "function"
    },
    {
      "inputs": [
        {
          "internalType": "uint256",
          "name": "id",
          "type": "uint256"
        },
        {
          "internalType": "string",
          "name": "title",
          "type": "string"
        },
        {
          "internalType": "string",
          "name": "description",
          "type": "string"
        },
        {
          "internalType": "string",
          "name": "imageURL",
          "type": "string"
        },
        {
          "internalType": "uint256",
          "name": "expiresAt",
          "type": "uint256"
        }
      ],
      "name": "updateProject",
      "outputs": [
        {
          "internalType": "bool",
          "name": "",
          "type": "bool"
        }
      ],
      "stateMutability": "nonpayable",
      "type": "function"
    },
    {
      "inputs": [
        {
          "internalType": "uint256",
          "name": "id",
          "type": "uint256"
        },
        {
          "internalType": "uint256",
          "name": "userID",
          "type": "uint256"
        }
      ],
      "name": "voteForBacker",
      "outputs": [],
      "stateMutability": "nonpayable",
      "type": "function"
    }
  ],
  "bytecode": "0x608060405234801561001057600080fd5b5060405161244e38038061244e83398101604081905261002f91610049565b600080546001600160a01b03191633179055600155610062565b60006020828403121561005b57600080fd5b5051919050565b6123dd806100716000396000f3fe6080604052600436106100fe5760003560e01c80639f39a19411610095578063c9168b7211610064578063c9168b72146102af578063d24cd3ec146102dc578063d80528ae146102f2578063dcc601281461032c578063f0f3f2c81461034e57600080fd5b80639f39a19414610246578063a4b2409e14610259578063b531dcba14610279578063b69ef8a81461029957600080fd5b80637de7e896116100d15780637de7e8961461019e5780638593054b146101be5780638da5cb5b146101ee5780639a3fa8c71461022657600080fd5b8063056c29ee1461010357806336fbad26146101385780633e45c8af1461015c5780634cd0cb281461017e575b600080fd5b34801561010f57600080fd5b5061012361011e366004611ec4565b61037b565b60405190151581526020015b60405180910390f35b34801561014457600080fd5b5061014e60025481565b60405190815260200161012f565b34801561016857600080fd5b5061017c610177366004611f5e565b6107e4565b005b34801561018a57600080fd5b50610123610199366004611f5e565b610839565b3480156101aa57600080fd5b5061017c6101b9366004611f77565b6109b5565b3480156101ca57600080fd5b506101236101d9366004611f5e565b600a6020526000908152604090205460ff1681565b3480156101fa57600080fd5b5060005461020e906001600160a01b031681565b6040516001600160a01b03909116815260200161012f565b34801561023257600080fd5b50610123610241366004611f99565b610a2f565b610123610254366004611f5e565b610ca6565b34801561026557600080fd5b50610123610274366004611f5e565b6110b3565b34801561028557600080fd5b50610123610294366004611f5e565b6111aa565b3480156102a557600080fd5b5061014e60035481565b3480156102bb57600080fd5b506102cf6102ca366004611f5e565b611299565b60405161012f9190612033565b3480156102e857600080fd5b5061014e60015481565b3480156102fe57600080fd5b5060045460055460065461031192919083565b6040805193845260208401929092529082015260600161012f565b34801561033857600080fd5b5061034161133b565b60405161012f91906121ec565b34801561035a57600080fd5b5061036e610369366004611f5e565b6115d6565b60405161012f919061224e565b6000808651116103ca5760405162461bcd60e51b81526020600482015260156024820152745469746c652063616e6e6f7420626520656d70747960581b60448201526064015b60405180910390fd5b600085511161041b5760405162461bcd60e51b815260206004820152601b60248201527f4465736372697074696f6e2063616e6e6f7420626520656d707479000000000060448201526064016103c1565b60008451116104675760405162461bcd60e51b8152602060048201526018602482015277496d61676555524c2063616e6e6f7420626520656d70747960401b60448201526064016103c1565b600083116104ad5760405162461bcd60e51b8152602060048201526013602482015272436f73742063616e6e6f74206265207a65726f60681b60448201526064016103c1565b6104b5611d15565b600254815233602080830191825260408301898152606084018990526080840188905260a084018790524260e085015261010084018690526007805460018101825560009190915284517fa66cc928b5edb82af9bd49922954155ab7b0942694bea4ce44661d9a8736c688600b90920291820190815593517fa66cc928b5edb82af9bd49922954155ab7b0942694bea4ce44661d9a8736c689820180546001600160a01b0319166001600160a01b03909216919091179055905180518594936105a2937fa66cc928b5edb82af9bd49922954155ab7b0942694bea4ce44661d9a8736c68a01920190611d88565b50606082015180516105be916003840191602090910190611d88565b50608082015180516105da916004840191602090910190611d88565b5060a0820151600582015560c0820151600682015560e0820151600782015561010082015160088201556101208201516009820155610140820151600a8201805460ff19166001836004811115610633576106336120ef565b021790555050600280546000908152600a602090815260408083208054600160ff1990911681179091553384526008835281842080548083018255908552938390208751600b909502019384558683015190840180546001600160a01b0319166001600160a01b03909216919091179055850151805186955092936106c093908501929190910190611d88565b50606082015180516106dc916003840191602090910190611d88565b50608082015180516106f8916004840191602090910190611d88565b5060a0820151600582015560c0820151600682015560e0820151600782015561010082015160088201556101208201516009820155610140820151600a8201805460ff19166001836004811115610751576107516120ef565b0217905550505060016004600001600082825461076e919061227e565b90915550506002805433916000805160206123888339815191529190600061079583612296565b9091555060408051918252606060208301819052600f908301526e141493d29150d50810d49150551151608a1b6080830152429082015260a00160405180910390a25060019695505050505050565b6000546001600160a01b031633146108345760405162461bcd60e51b81526020600482015260136024820152724f776e6572207265736572766564206f6e6c7960681b60448201526064016103c1565b600155565b6000806007838154811061084f5761084f6122b1565b60009182526020909120600a600b90920201015460ff166004811115610877576108776120ef565b146108bf5760405162461bcd60e51b8152602060048201526018602482015277141c9bda9958dd081b9bc81b1bdb99d95c881bdc195b995960421b60448201526064016103c1565b600782815481106108d2576108d26122b1565b60009182526020909120600b90910201600101546001600160a01b0316331461090d5760405162461bcd60e51b81526004016103c1906122c7565b600360078381548110610922576109226122b1565b60009182526020909120600a600b9092020101805460ff1916600183600481111561094f5761094f6120ef565b021790555061095d826118b6565b60408051838152606060208201819052600f908201526e141493d29150d50811115311551151608a1b6080820152428183015290513391600080516020612388833981519152919081900360a00190a2506001919050565b6000915060005b600083815260096020526040902054811015610a2a576000838152600960205260409020805460019190839081106109f6576109f66122b1565b60009182526020909120600490910201600301805460ff191691151591909117905580610a2281612296565b9150506109bc565b505050565b600060078681548110610a4457610a446122b1565b60009182526020909120600b90910201600101546001600160a01b03163314610a7f5760405162461bcd60e51b81526004016103c1906122c7565b6000855111610ac85760405162461bcd60e51b81526020600482015260156024820152745469746c652063616e6e6f7420626520656d70747960581b60448201526064016103c1565b6000845111610b195760405162461bcd60e51b815260206004820152601b60248201527f4465736372697074696f6e2063616e6e6f7420626520656d707479000000000060448201526064016103c1565b6000835111610b655760405162461bcd60e51b8152602060048201526018602482015277496d61676555524c2063616e6e6f7420626520656d70747960401b60448201526064016103c1565b8460078781548110610b7957610b796122b1565b90600052602060002090600b02016002019080519060200190610b9d929190611d88565b508360078781548110610bb257610bb26122b1565b90600052602060002090600b02016003019080519060200190610bd6929190611d88565b508260078781548110610beb57610beb6122b1565b90600052602060002090600b02016004019080519060200190610c0f929190611d88565b508160078781548110610c2457610c246122b1565b90600052602060002090600b020160080181905550336001600160a01b03166000805160206123888339815191528742604051610c92929190918252606060208301819052600f908301526e141493d29150d50815541110551151608a1b6080830152604082015260a00190565b60405180910390a250600195945050505050565b6000803411610cf75760405162461bcd60e51b815260206004820152601f60248201527f4574686572206d7573742062652067726561746572207468616e207a65726f0060448201526064016103c1565b6000828152600a602052604090205460ff16610d495760405162461bcd60e51b8152602060048201526011602482015270141c9bda9958dd081b9bdd08199bdd5b99607a1b60448201526064016103c1565b600060078381548110610d5e57610d5e6122b1565b60009182526020909120600a600b90920201015460ff166004811115610d8657610d866120ef565b14610dce5760405162461bcd60e51b8152602060048201526018602482015277141c9bda9958dd081b9bc81b1bdb99d95c881bdc195b995960421b60448201526064016103c1565b600160046001016000828254610de4919061227e565b909155505060068054349190600090610dfe90849061227e565b925050819055503460078381548110610e1957610e196122b1565b90600052602060002090600b02016006016000828254610e39919061227e565b92505081905550600160078381548110610e5557610e556122b1565b90600052602060002090600b02016009016000828254610e75919061227e565b9091555050600082815260096020908152604080832081516080808201845233808352348387019081524284870181815260608087018b8152885460018082018b55998d529b8b902097516004909c0290970180546001600160a01b0319166001600160a01b03909c169b909b178b559251968a01969096559451600289015592516003909701805460ff1916971515979097179096558351888152948501829052600e918501919091526d141493d29150d508109050d2d15160921b90840152908201526000805160206123888339815191529060a00160405180910390a260078281548110610f6857610f686122b1565b90600052602060002090600b02016005015460078381548110610f8d57610f8d6122b1565b90600052602060002090600b0201600601541061103857600160078381548110610fb957610fb96122b1565b60009182526020909120600a600b9092020101805460ff19166001836004811115610fe657610fe66120ef565b021790555060078281548110610ffe57610ffe6122b1565b90600052602060002090600b02016006015460036000828254611021919061227e565b90915550611030905082611a24565b506001919050565b6007828154811061104b5761104b6122b1565b90600052602060002090600b020160080154421061103057600260078381548110611078576110786122b1565b60009182526020909120600a600b9092020101805460ff191660018360048111156110a5576110a56120ef565b0217905550611030826118b6565b60006002600783815481106110ca576110ca6122b1565b60009182526020909120600a600b90920201015460ff1660048111156110f2576110f26120ef565b14158061113a575060036007838154811061110f5761110f6122b1565b60009182526020909120600a600b90920201015460ff166004811115611137576111376120ef565b14155b6111955760405162461bcd60e51b815260206004820152602660248201527f50726f6a656374206e6f74206d61726b656420617320726576657274206f722060448201526564656c65746560d01b60648201526084016103c1565b600260078381548110611078576110786122b1565b60006001600783815481106111c1576111c16122b1565b60009182526020909120600a600b90920201015460ff1660048111156111e9576111e96120ef565b1461122d5760405162461bcd60e51b8152602060048201526014602482015273141c9bda9958dd081b9bdd081054141493d5915160621b60448201526064016103c1565b60078281548110611240576112406122b1565b60009182526020909120600b90910201600101546001600160a01b031633148061127457506000546001600160a01b031633145b6112905760405162461bcd60e51b81526004016103c1906122c7565b61103082611a24565b606060096000838152602001908152602001600020805480602002602001604051908101604052809291908181526020016000905b82821015611330576000848152602090819020604080516080810182526004860290920180546001600160a01b03168352600180820154848601526002820154928401929092526003015460ff161515606083015290835290920191016112ce565b505050509050919050565b60606007805480602002602001604051908101604052809291908181526020016000905b828210156115cd5760008481526020908190206040805161016081018252600b86029092018054835260018101546001600160a01b031693830193909352600283018054929392918401916113b3906122f4565b80601f01602080910402602001604051908101604052809291908181526020018280546113df906122f4565b801561142c5780601f106114015761010080835404028352916020019161142c565b820191906000526020600020905b81548152906001019060200180831161140f57829003601f168201915b50505050508152602001600382018054611445906122f4565b80601f0160208091040260200160405190810160405280929190818152602001828054611471906122f4565b80156114be5780601f10611493576101008083540402835291602001916114be565b820191906000526020600020905b8154815290600101906020018083116114a157829003601f168201915b505050505081526020016004820180546114d7906122f4565b80601f0160208091040260200160405190810160405280929190818152602001828054611503906122f4565b80156115505780601f1061152557610100808354040283529160200191611550565b820191906000526020600020905b81548152906001019060200180831161153357829003601f168201915b505050918352505060058201546020820152600682015460408201526007820154606082015260088201546080820152600982015460a0820152600a82015460c09091019060ff1660048111156115a9576115a96120ef565b60048111156115ba576115ba6120ef565b815250508152602001906001019061135f565b50505050905090565b6115de611d15565b6000828152600a602052604090205460ff166116305760405162461bcd60e51b8152602060048201526011602482015270141c9bda9958dd081b9bdd08199bdd5b99607a1b60448201526064016103c1565b60078281548110611643576116436122b1565b90600052602060002090600b020160405180610160016040529081600082015481526020016001820160009054906101000a90046001600160a01b03166001600160a01b03166001600160a01b031681526020016002820180546116a6906122f4565b80601f01602080910402602001604051908101604052809291908181526020018280546116d2906122f4565b801561171f5780601f106116f45761010080835404028352916020019161171f565b820191906000526020600020905b81548152906001019060200180831161170257829003601f168201915b50505050508152602001600382018054611738906122f4565b80601f0160208091040260200160405190810160405280929190818152602001828054611764906122f4565b80156117b15780601f10611786576101008083540402835291602001916117b1565b820191906000526020600020905b81548152906001019060200180831161179457829003601f168201915b505050505081526020016004820180546117ca906122f4565b80601f01602080910402602001604051908101604052809291908181526020018280546117f6906122f4565b80156118435780601f1061181857610100808354040283529160200191611843565b820191906000526020600020905b81548152906001019060200180831161182657829003601f168201915b505050918352505060058201546020820152600682015460408201526007820154606082015260088201546080820152600982015460a0820152600a82015460c09091019060ff16600481111561189c5761189c6120ef565b60048111156118ad576118ad6120ef565b90525092915050565b60005b600082815260096020526040902054811015611a205760008281526009602052604081208054839081106118ef576118ef6122b1565b6000918252602080832060049092029091015485835260099091526040822080546001600160a01b039092169350908490811061192e5761192e6122b1565b90600052602060002090600402016001015490506001600960008681526020019081526020016000208481548110611968576119686122b1565b906000526020600020906004020160030160006101000a81548160ff021916908315150217905550426009600086815260200190815260200160002084815481106119b5576119b56122b1565b9060005260206000209060040201600201819055506119d48282611cb5565b6001600460010160008282546119ea919061232f565b909155505060068054829190600090611a0490849061232f565b9250508190555050508080611a1890612296565b9150506118b9565b5050565b600060078281548110611a3957611a396122b1565b90600052602060002090600b02016006015490506000606460015483611a5f9190612346565b611a699190612365565b9050600060078481548110611a8057611a806122b1565b90600052602060002090600b0201600801549050600460078581548110611aa957611aa96122b1565b60009182526020909120600a600b9092020101805460ff19166001836004811115611ad657611ad66120ef565b02179055506000805b600086815260096020526040902054811015611b51576000868152600960205260409020805482908110611b1557611b156122b1565b600091825260209091206003600490920201015460ff1615611b3f5781611b3b81612296565b9250505b80611b4981612296565b915050611adf565b50600181118015611b60575081155b15611c4e57611ba760078681548110611b7b57611b7b6122b1565b600091825260209091206001600b9092020101546001600160a01b0316611ba2858761232f565b611cb5565b600054611bbd906001600160a01b031684611cb5565b60078581548110611bd057611bd06122b1565b90600052602060002090600b02016006015460036000828254611bf3919061232f565b9091555050604080518681526060602082018190526010908201526f141493d29150d508141052510813d55560821b6080820152428183015290513391600080516020612388833981519152919081900360a00190a2611cae565b611c57856110b3565b506040805186815260606020820181905260149082015273141493d29150d5081393d508141052510813d55560621b6080820152428183015290513391600080516020612388833981519152919081900360a00190a25b5050505050565b6000826001600160a01b03168260405160006040518083038185875af1925050503d8060008114611d02576040519150601f19603f3d011682016040523d82523d6000602084013e611d07565b606091505b5050905080610a2a57600080fd5b6040518061016001604052806000815260200160006001600160a01b03168152602001606081526020016060815260200160608152602001600081526020016000815260200160008152602001600081526020016000815260200160006004811115611d8357611d836120ef565b905290565b828054611d94906122f4565b90600052602060002090601f016020900481019282611db65760008555611dfc565b82601f10611dcf57805160ff1916838001178555611dfc565b82800160010185558215611dfc579182015b82811115611dfc578251825591602001919060010190611de1565b50611e08929150611e0c565b5090565b5b80821115611e085760008155600101611e0d565b634e487b7160e01b600052604160045260246000fd5b600082601f830112611e4857600080fd5b813567ffffffffffffffff80821115611e6357611e63611e21565b604051601f8301601f19908116603f01168101908282118183101715611e8b57611e8b611e21565b81604052838152866020858801011115611ea457600080fd5b836020870160208301376000602085830101528094505050505092915050565b600080600080600060a08688031215611edc57600080fd5b853567ffffffffffffffff80821115611ef457600080fd5b611f0089838a01611e37565b96506020880135915080821115611f1657600080fd5b611f2289838a01611e37565b95506040880135915080821115611f3857600080fd5b50611f4588828901611e37565b9598949750949560608101359550608001359392505050565b600060208284031215611f7057600080fd5b5035919050565b60008060408385031215611f8a57600080fd5b50508035926020909101359150565b600080600080600060a08688031215611fb157600080fd5b85359450602086013567ffffffffffffffff80821115611fd057600080fd5b611fdc89838a01611e37565b95506040880135915080821115611ff257600080fd5b611ffe89838a01611e37565b9450606088013591508082111561201457600080fd5b5061202188828901611e37565b95989497509295608001359392505050565b602080825282518282018190526000919060409081850190868401855b8281101561209557815180516001600160a01b031685528681015187860152858101518686015260609081015115159085015260809093019290850190600101612050565b5091979650505050505050565b6000815180845260005b818110156120c8576020818501810151868301820152016120ac565b818111156120da576000602083870101525b50601f01601f19169290920160200192915050565b634e487b7160e01b600052602160045260246000fd5b6005811061212357634e487b7160e01b600052602160045260246000fd5b9052565b600061016082518452602083015161214a60208601826001600160a01b03169052565b506040830151816040860152612162828601826120a2565b9150506060830151848203606086015261217c82826120a2565b9150506080830151848203608086015261219682826120a2565b91505060a083015160a085015260c083015160c085015260e083015160e0850152610100808401518186015250610120808401518186015250610140808401516121e282870182612105565b5090949350505050565b6000602080830181845280855180835260408601915060408160051b870101925083870160005b8281101561224157603f1988860301845261222f858351612127565b94509285019290850190600101612213565b5092979650505050505050565b6020815260006122616020830184612127565b9392505050565b634e487b7160e01b600052601160045260246000fd5b6000821982111561229157612291612268565b500190565b60006000198214156122aa576122aa612268565b5060010190565b634e487b7160e01b600052603260045260246000fd5b602080825260139082015272556e617574686f72697a656420456e7469747960681b604082015260600190565b600181811c9082168061230857607f821691505b6020821081141561232957634e487b7160e01b600052602260045260246000fd5b50919050565b60008282101561234157612341612268565b500390565b600081600019048311821515161561236057612360612268565b500290565b60008261238257634e487b7160e01b600052601260045260246000fd5b50049056feaee8e5d3bbb2f71a951b5632cee20f7ac487b9f8ab4f66a236f7694b13af7c6aa2646970667358221220621701661d049bad85d2d1ffa04cfe090a9de0fc27e88f3ec2523eab2dc5efce64736f6c634300080b0033",
  "linkReferences": {},
  "deployedLinkReferences": {}
}